{
  "_format": "hh-sol-artifact-1",
  "contractName": "HouseOwnershipRegistry",
  "sourceName": "contracts/HouseOwnership.sol",
  "abi": [
    {
      "inputs": [
        {
          "internalType": "address",
          "name": "caller",
          "type": "address"
        }
      ],
      "name": "NoProperties",
      "type": "error"
    },
    {
      "inputs": [
        {
          "internalType": "address",
          "name": "caller",
          "type": "address"
        },
        {
          "internalType": "string",
          "name": "houseAddress",
          "type": "string"
        }
      ],
      "name": "NotOwner",
      "type": "error"
    },
    {
      "inputs": [
        {
          "internalType": "string",
          "name": "houseAddress",
          "type": "string"
        }
      ],
      "name": "PropertyNotRegistered",
      "type": "error"
    },
    {
      "anonymous": false,
      "inputs": [
        {
          "indexed": false,
          "internalType": "string",
          "name": "currentHouseAddress",
          "type": "string"
        },
        {
          "indexed": false,
          "internalType": "string",
          "name": "newHouseAddress",
          "type": "string"
        }
      ],
      "name": "HouseAddressUpdated",
      "type": "event"
    },
    {
      "anonymous": false,
      "inputs": [
        {
          "indexed": false,
          "internalType": "string",
          "name": "houseAddress",
          "type": "string"
        },
        {
          "indexed": false,
          "internalType": "address",
          "name": "owner",
          "type": "address"
        }
      ],
      "name": "HouseRegistered",
      "type": "event"
    },
    {
      "anonymous": false,
      "inputs": [
        {
          "indexed": false,
          "internalType": "string",
          "name": "houseAddress",
          "type": "string"
        },
        {
          "indexed": false,
          "internalType": "string",
          "name": "newIpfsHash",
          "type": "string"
        }
      ],
      "name": "IpfsHashUpdated",
      "type": "event"
    },
    {
      "anonymous": false,
      "inputs": [
        {
          "indexed": false,
          "internalType": "string",
          "name": "houseAddress",
          "type": "string"
        },
        {
          "indexed": false,
          "internalType": "string",
          "name": "documentIPFSHash",
          "type": "string"
        },
        {
          "indexed": false,
          "internalType": "uint256",
          "name": "startDate",
          "type": "uint256"
        },
        {
          "indexed": false,
          "internalType": "uint256",
          "name": "endDate",
          "type": "uint256"
        },
        {
          "indexed": false,
          "internalType": "string",
          "name": "tenantName",
          "type": "string"
        }
      ],
      "name": "LeaseAdded",
      "type": "event"
    },
    {
      "anonymous": false,
      "inputs": [
        {
          "indexed": false,
          "internalType": "string",
          "name": "houseAddress",
          "type": "string"
        },
        {
          "indexed": false,
          "internalType": "uint256",
          "name": "startDate",
          "type": "uint256"
        },
        {
          "indexed": false,
          "internalType": "uint256",
          "name": "endDate",
          "type": "uint256"
        },
        {
          "indexed": false,
          "internalType": "string",
          "name": "tenantName",
          "type": "string"
        }
      ],
      "name": "LeaseRemoved",
      "type": "event"
    },
    {
      "anonymous": false,
      "inputs": [
        {
          "indexed": false,
          "internalType": "string",
          "name": "houseAddress",
          "type": "string"
        },
        {
          "indexed": false,
          "internalType": "uint256",
          "name": "startDate",
          "type": "uint256"
        },
        {
          "indexed": false,
          "internalType": "uint256",
          "name": "endDate",
          "type": "uint256"
        },
        {
          "indexed": false,
          "internalType": "uint256",
          "name": "amount",
          "type": "uint256"
        }
      ],
      "name": "PropertTaxReceiptRemoved",
      "type": "event"
    },
    {
      "anonymous": false,
      "inputs": [
        {
          "indexed": false,
          "internalType": "string",
          "name": "houseAddress",
          "type": "string"
        },
        {
          "indexed": false,
          "internalType": "string",
          "name": "documentIPFSHash",
          "type": "string"
        },
        {
          "indexed": false,
          "internalType": "uint256",
          "name": "startDate",
          "type": "uint256"
        },
        {
          "indexed": false,
          "internalType": "uint256",
          "name": "endDate",
          "type": "uint256"
        },
        {
          "indexed": false,
          "internalType": "uint256",
          "name": "amount",
          "type": "uint256"
        }
      ],
      "name": "PropertyTaxReceiptAdded",
      "type": "event"
    },
    {
      "anonymous": false,
      "inputs": [
        {
          "indexed": false,
          "internalType": "string",
          "name": "houseAddress",
          "type": "string"
        },
        {
          "indexed": false,
          "internalType": "string",
          "name": "documentIPFSHash",
          "type": "string"
        },
        {
          "indexed": false,
          "internalType": "uint256",
          "name": "startDate",
          "type": "uint256"
        },
        {
          "indexed": false,
          "internalType": "uint256",
          "name": "endDate",
          "type": "uint256"
        },
        {
          "indexed": false,
          "internalType": "uint256",
          "name": "amount",
          "type": "uint256"
        }
      ],
      "name": "UtilityBillAdded",
      "type": "event"
    },
    {
      "anonymous": false,
      "inputs": [
        {
          "indexed": false,
          "internalType": "string",
          "name": "houseAddress",
          "type": "string"
        },
        {
          "indexed": false,
          "internalType": "uint256",
          "name": "startDate",
          "type": "uint256"
        },
        {
          "indexed": false,
          "internalType": "uint256",
          "name": "endDate",
          "type": "uint256"
        },
        {
          "indexed": false,
          "internalType": "uint256",
          "name": "amount",
          "type": "uint256"
        }
      ],
      "name": "UtilityBillRemoved",
      "type": "event"
    },
    {
      "anonymous": false,
      "inputs": [
        {
          "indexed": false,
          "internalType": "string",
          "name": "houseAddress",
          "type": "string"
        }
      ],
      "name": "allLeasesRemoved",
      "type": "event"
    },
    {
      "anonymous": false,
      "inputs": [
        {
          "indexed": false,
          "internalType": "string",
          "name": "houseAddress",
          "type": "string"
        }
      ],
      "name": "allPropertyTaxReceiptsRemoved",
      "type": "event"
    },
    {
      "anonymous": false,
      "inputs": [
        {
          "indexed": false,
          "internalType": "string",
          "name": "houseAddress",
          "type": "string"
        }
      ],
      "name": "allUtilityBillsRemoved",
      "type": "event"
    },
    {
      "inputs": [
        {
          "internalType": "string",
          "name": "houseAddress",
          "type": "string"
        },
        {
          "internalType": "string",
          "name": "documentIPFSHash",
          "type": "string"
        },
        {
          "internalType": "uint256",
          "name": "startDate",
          "type": "uint256"
        },
        {
          "internalType": "uint256",
          "name": "endDate",
          "type": "uint256"
        },
        {
          "internalType": "string",
          "name": "tenantName",
          "type": "string"
        }
      ],
      "name": "addLease",
      "outputs": [],
      "stateMutability": "nonpayable",
      "type": "function"
    },
    {
      "inputs": [
        {
          "internalType": "string",
          "name": "houseAddress",
          "type": "string"
        },
        {
          "internalType": "string",
          "name": "documentIPFSHash",
          "type": "string"
        },
        {
          "internalType": "uint256",
          "name": "startDate",
          "type": "uint256"
        },
        {
          "internalType": "uint256",
          "name": "endDate",
          "type": "uint256"
        },
        {
          "internalType": "uint256",
          "name": "amount",
          "type": "uint256"
        }
      ],
      "name": "addPropertyTax",
      "outputs": [],
      "stateMutability": "nonpayable",
      "type": "function"
    },
    {
      "inputs": [
        {
          "internalType": "string",
          "name": "houseAddress",
          "type": "string"
        },
        {
          "internalType": "string",
          "name": "documentIPFSHash",
          "type": "string"
        },
        {
          "internalType": "uint256",
          "name": "startDate",
          "type": "uint256"
        },
        {
          "internalType": "uint256",
          "name": "endDate",
          "type": "uint256"
        },
        {
          "internalType": "uint256",
          "name": "amount",
          "type": "uint256"
        }
      ],
      "name": "addUtilityBill",
      "outputs": [],
      "stateMutability": "nonpayable",
      "type": "function"
    },
    {
      "inputs": [
        {
          "internalType": "string",
          "name": "houseAddress",
          "type": "string"
        },
        {
          "internalType": "uint256",
          "name": "startDate",
          "type": "uint256"
        },
        {
          "internalType": "uint256",
          "name": "endDate",
          "type": "uint256"
        },
        {
          "internalType": "string",
          "name": "tenantName",
          "type": "string"
        }
      ],
      "name": "findLeaseIndex",
      "outputs": [
        {
          "internalType": "uint256",
          "name": "",
          "type": "uint256"
        }
      ],
      "stateMutability": "view",
      "type": "function"
    },
    {
      "inputs": [
        {
          "internalType": "string",
          "name": "houseAddress",
          "type": "string"
        },
        {
          "internalType": "uint256",
          "name": "startDate",
          "type": "uint256"
        },
        {
          "internalType": "uint256",
          "name": "endDate",
          "type": "uint256"
        },
        {
          "internalType": "uint256",
          "name": "amount",
          "type": "uint256"
        }
      ],
      "name": "findPropertyTaxIndex",
      "outputs": [
        {
          "internalType": "uint256",
          "name": "",
          "type": "uint256"
        }
      ],
      "stateMutability": "view",
      "type": "function"
    },
    {
      "inputs": [
        {
          "internalType": "string",
          "name": "houseAddress",
          "type": "string"
        },
        {
          "internalType": "uint256",
          "name": "startDate",
          "type": "uint256"
        },
        {
          "internalType": "uint256",
          "name": "endDate",
          "type": "uint256"
        },
        {
          "internalType": "uint256",
          "name": "amount",
          "type": "uint256"
        }
      ],
      "name": "findUtilityBillIndex",
      "outputs": [
        {
          "internalType": "uint256",
          "name": "",
          "type": "uint256"
        }
      ],
      "stateMutability": "view",
      "type": "function"
    },
    {
      "inputs": [
        {
          "internalType": "string",
          "name": "houseAddress",
          "type": "string"
        }
      ],
      "name": "getDocumentHash",
      "outputs": [
        {
          "internalType": "string",
          "name": "",
          "type": "string"
        }
      ],
      "stateMutability": "view",
      "type": "function"
    },
    {
      "inputs": [
        {
          "internalType": "string",
          "name": "houseAddress",
          "type": "string"
        }
      ],
      "name": "getLeases",
      "outputs": [
        {
          "components": [
            {
              "components": [
                {
                  "internalType": "string",
                  "name": "documentCID",
                  "type": "string"
                },
                {
                  "internalType": "uint256",
                  "name": "uploadedAt",
                  "type": "uint256"
                }
              ],
              "internalType": "struct Document",
              "name": "document",
              "type": "tuple"
            },
            {
              "internalType": "uint256",
              "name": "startDate",
              "type": "uint256"
            },
            {
              "internalType": "uint256",
              "name": "endDate",
              "type": "uint256"
            },
            {
              "internalType": "string",
              "name": "tenantName",
              "type": "string"
            },
            {
              "internalType": "bool",
              "name": "isActive",
              "type": "bool"
            }
          ],
          "internalType": "struct Lease[]",
          "name": "",
          "type": "tuple[]"
        }
      ],
      "stateMutability": "view",
      "type": "function"
    },
    {
      "inputs": [
        {
          "internalType": "address",
          "name": "caller",
          "type": "address"
        }
      ],
      "name": "getPropertyAddress",
      "outputs": [
        {
          "internalType": "string[]",
          "name": "",
          "type": "string[]"
        }
      ],
      "stateMutability": "view",
      "type": "function"
    },
    {
      "inputs": [
        {
          "internalType": "string",
          "name": "houseAddress",
          "type": "string"
        }
      ],
      "name": "getPropertyTaxReceipts",
      "outputs": [
        {
          "components": [
            {
              "components": [
                {
                  "internalType": "string",
                  "name": "documentCID",
                  "type": "string"
                },
                {
                  "internalType": "uint256",
                  "name": "uploadedAt",
                  "type": "uint256"
                }
              ],
              "internalType": "struct Document",
              "name": "document",
              "type": "tuple"
            },
            {
              "internalType": "uint256",
              "name": "startDate",
              "type": "uint256"
            },
            {
              "internalType": "uint256",
              "name": "endDate",
              "type": "uint256"
            },
            {
              "internalType": "uint256",
              "name": "amount",
              "type": "uint256"
            }
          ],
          "internalType": "struct PropertyTax[]",
          "name": "",
          "type": "tuple[]"
        }
      ],
      "stateMutability": "view",
      "type": "function"
    },
    {
      "inputs": [
        {
          "internalType": "string",
          "name": "houseAddress",
          "type": "string"
        }
      ],
      "name": "getUtilityBills",
      "outputs": [
        {
          "components": [
            {
              "components": [
                {
                  "internalType": "string",
                  "name": "documentCID",
                  "type": "string"
                },
                {
                  "internalType": "uint256",
                  "name": "uploadedAt",
                  "type": "uint256"
                }
              ],
              "internalType": "struct Document",
              "name": "document",
              "type": "tuple"
            },
            {
              "internalType": "uint256",
              "name": "startDate",
              "type": "uint256"
            },
            {
              "internalType": "uint256",
              "name": "endDate",
              "type": "uint256"
            },
            {
              "internalType": "uint256",
              "name": "amount",
              "type": "uint256"
            }
          ],
          "internalType": "struct UtilityBill[]",
          "name": "",
          "type": "tuple[]"
        }
      ],
      "stateMutability": "view",
      "type": "function"
    },
    {
      "inputs": [
        {
          "internalType": "string",
          "name": "",
          "type": "string"
        }
      ],
      "name": "houseRegistry",
      "outputs": [
        {
          "internalType": "address",
          "name": "owner",
          "type": "address"
        },
        {
          "internalType": "string",
          "name": "documentIPFSHash",
          "type": "string"
        }
      ],
      "stateMutability": "view",
      "type": "function"
    },
    {
      "inputs": [
        {
          "internalType": "string",
          "name": "houseAddress",
          "type": "string"
        },
        {
          "internalType": "string",
          "name": "documentIPFSHash",
          "type": "string"
        }
      ],
      "name": "registerHouse",
      "outputs": [],
      "stateMutability": "nonpayable",
      "type": "function"
    },
    {
      "inputs": [
        {
          "internalType": "string",
          "name": "houseAddress",
          "type": "string"
        }
      ],
      "name": "removeAllLeases",
      "outputs": [],
      "stateMutability": "nonpayable",
      "type": "function"
    },
    {
      "inputs": [
        {
          "internalType": "string",
          "name": "houseAddress",
          "type": "string"
        }
      ],
      "name": "removeAllPropertyTaxReceipts",
      "outputs": [],
      "stateMutability": "nonpayable",
      "type": "function"
    },
    {
      "inputs": [
        {
          "internalType": "string",
          "name": "houseAddress",
          "type": "string"
        }
      ],
      "name": "removeAllUtilityBills",
      "outputs": [],
      "stateMutability": "nonpayable",
      "type": "function"
    },
    {
      "inputs": [
        {
          "internalType": "string",
          "name": "houseAddress",
          "type": "string"
        },
        {
          "internalType": "uint256",
          "name": "startDate",
          "type": "uint256"
        },
        {
          "internalType": "uint256",
          "name": "endDate",
          "type": "uint256"
        },
        {
          "internalType": "string",
          "name": "tenantName",
          "type": "string"
        }
      ],
      "name": "removeLease",
      "outputs": [],
      "stateMutability": "nonpayable",
      "type": "function"
    },
    {
      "inputs": [
        {
          "internalType": "string",
          "name": "houseAddress",
          "type": "string"
        },
        {
          "internalType": "uint256",
          "name": "startDate",
          "type": "uint256"
        },
        {
          "internalType": "uint256",
          "name": "endDate",
          "type": "uint256"
        },
        {
          "internalType": "uint256",
          "name": "amount",
          "type": "uint256"
        }
      ],
      "name": "removePropertyTaxReceipt",
      "outputs": [],
      "stateMutability": "nonpayable",
      "type": "function"
    },
    {
      "inputs": [
        {
          "internalType": "string",
          "name": "houseAddress",
          "type": "string"
        },
        {
          "internalType": "uint256",
          "name": "startDate",
          "type": "uint256"
        },
        {
          "internalType": "uint256",
          "name": "endDate",
          "type": "uint256"
        },
        {
          "internalType": "uint256",
          "name": "amount",
          "type": "uint256"
        }
      ],
      "name": "removeUtilityBill",
      "outputs": [],
      "stateMutability": "nonpayable",
      "type": "function"
    },
    {
      "inputs": [
        {
          "internalType": "string",
          "name": "currentHouseAddress",
          "type": "string"
        },
        {
          "internalType": "string",
          "name": "newHouseAddress",
          "type": "string"
        }
      ],
      "name": "updatePropertyAddress",
      "outputs": [],
      "stateMutability": "nonpayable",
      "type": "function"
    },
    {
      "inputs": [
        {
          "internalType": "string",
          "name": "currentHouseAddress",
          "type": "string"
        },
        {
          "internalType": "string",
          "name": "newIpfsHash",
          "type": "string"
        }
      ],
      "name": "updatePropertyIpfsHash",
      "outputs": [],
      "stateMutability": "nonpayable",
      "type": "function"
    },
    {
      "inputs": [
        {
          "internalType": "string",
          "name": "houseAddress",
          "type": "string"
        },
        {
          "internalType": "address",
          "name": "caller",
          "type": "address"
        }
      ],
      "name": "verifyOwner",
      "outputs": [],
      "stateMutability": "view",
      "type": "function"
    }
  ],
  "bytecode": "0x608060405234801561001057600080fd5b50615219806100206000396000f3fe608060405234801561001057600080fd5b50600436106101425760003560e01c80638b51f713116100b8578063ce3526641161007c578063ce352664146103bc578063dd26962f146103d8578063e2aa65f6146103f4578063faa4fa1c14610410578063fcf6bcda1461042c578063fd190a821461044857610142565b80638b51f7131461030857806398593aa1146103245780639facb0d814610354578063a42468b814610370578063bb6ccd941461038c57610142565b806341f013b71161010a57806341f013b714610224578063468ad4fc1461024057806371ce20361461025c57806378d85ffb1461028c5780637f765bc9146102bc5780638087c080146102ec57610142565b80630dd4f98614610147578063161c1e20146101775780633c8af9db146101a75780633edf991a146101d857806340a2596f14610208575b600080fd5b610161600480360381019061015c91906139f4565b610464565b60405161016e9190613b73565b60405180910390f35b610191600480360381019061018c9190613cca565b61073b565b60405161019e9190613e8e565b60405180910390f35b6101c160048036038101906101bc9190613cca565b610893565b6040516101cf929190613f09565b60405180910390f35b6101f260048036038101906101ed9190613f65565b610975565b6040516101ff9190613ff7565b60405180910390f35b610222600480360381019061021d9190613f65565b610b35565b005b61023e60048036038101906102399190613cca565b610d9a565b005b61025a60048036038101906102559190613cca565b611335565b005b61027660048036038101906102719190613cca565b6118d0565b604051610283919061416c565b60405180910390f35b6102a660048036038101906102a1919061418e565b611acb565b6040516102b39190613ff7565b60405180910390f35b6102d660048036038101906102d19190613f65565b611d87565b6040516102e39190613ff7565b60405180910390f35b6103066004803603810190610301919061422d565b611f47565b005b610322600480360381019061031d919061418e565b6120e0565b005b61033e60048036038101906103399190613cca565b6121fc565b60405161034b91906143ca565b60405180910390f35b61036e600480360381019061036991906143ec565b612354565b005b61038a60048036038101906103859190614448565b6124bd565b005b6103a660048036038101906103a19190613cca565b6125e3565b6040516103b391906144fb565b60405180910390f35b6103d660048036038101906103d19190613f65565b6126a0565b005b6103f260048036038101906103ed919061422d565b612905565b005b61040e60048036038101906104099190614448565b6129bf565b005b61042a6004803603810190610425919061422d565b612ae5565b005b6104466004803603810190610441919061451d565b6130bd565b005b610462600480360381019061045d9190613cca565b613218565b005b6060600060018054905067ffffffffffffffff81111561048757610486613b9f565b5b6040519080825280602002602001820160405280156104ba57816020015b60608152602001906001900390816104a55790505b5090506000805b600180549050811015610640578473ffffffffffffffffffffffffffffffffffffffff166000600183815481106104fb576104fa6145ec565b5b90600052602060002001604051610512919061471e565b908152602001604051809103902060000160009054906101000a900473ffffffffffffffffffffffffffffffffffffffff1673ffffffffffffffffffffffffffffffffffffffff16036106335760018181548110610573576105726145ec565b5b9060005260206000200180546105889061464a565b80601f01602080910402602001604051908101604052809291908181526020018280546105b49061464a565b80156106015780601f106105d657610100808354040283529160200191610601565b820191906000526020600020905b8154815290600101906020018083116105e457829003601f168201915b5050505050838381518110610619576106186145ec565b5b6020026020010181905250818061062f90614764565b9250505b80806001019150506104c1565b5060008111156106f95760008167ffffffffffffffff81111561066657610665613b9f565b5b60405190808252806020026020018201604052801561069957816020015b60608152602001906001900390816106845790505b50905060005b828110156106ed578381815181106106ba576106b96145ec565b5b60200260200101518282815181106106d5576106d46145ec565b5b6020026020010181905250808060010191505061069f565b50809350505050610736565b836040517f880bcabb00000000000000000000000000000000000000000000000000000000815260040161072d91906147ac565b60405180910390fd5b919050565b60606107478233612354565b60008260405161075791906147f8565b9081526020016040518091039020600301805480602002602001604051908101604052809291908181526020016000905b828210156108885783829060005260206000209060050201604051806080016040529081600082016040518060400160405290816000820180546107cb9061464a565b80601f01602080910402602001604051908101604052809291908181526020018280546107f79061464a565b80156108445780601f1061081957610100808354040283529160200191610844565b820191906000526020600020905b81548152906001019060200180831161082757829003601f168201915b505050505081526020016001820154815250508152602001600282015481526020016003820154815260200160048201548152505081526020019060010190610788565b505050509050919050565b6000818051602081018201805184825260208301602085012081835280955050505050506000915090508060000160009054906101000a900473ffffffffffffffffffffffffffffffffffffffff16908060010180546108f29061464a565b80601f016020809104026020016040519081016040528092919081815260200182805461091e9061464a565b801561096b5780601f106109405761010080835404028352916020019161096b565b820191906000526020600020905b81548152906001019060200180831161094e57829003601f168201915b5050505050905082565b600080600090505b60008660405161098d91906147f8565b908152602001604051809103902060040180549050811015610b0857600080876040516109ba91906147f8565b908152602001604051809103902060040182815481106109dd576109dc6145ec565b5b906000526020600020906005020160405180608001604052908160008201604051806040016040529081600082018054610a169061464a565b80601f0160208091040260200160405190810160405280929190818152602001828054610a429061464a565b8015610a8f5780601f10610a6457610100808354040283529160200191610a8f565b820191906000526020600020905b815481529060010190602001808311610a7257829003601f168201915b50505050508152602001600182015481525050815260200160028201548152602001600382015481526020016004820154815250509050858160200151148015610adc5750848160400151145b8015610aeb5750838160600151145b15610afa578192505050610b2d565b50808060010191505061097d565b507fffffffffffffffffffffffffffffffffffffffffffffffffffffffffffffffff90505b949350505050565b610b3f8433612354565b6000610b4d85858585611d87565b90507fffffffffffffffffffffffffffffffffffffffffffffffffffffffffffffffff8103610bb1576040517f08c379a0000000000000000000000000000000000000000000000000000000008152600401610ba89061485b565b60405180910390fd5b60008190505b6001600087604051610bc991906147f8565b908152602001604051809103902060040180549050610be8919061487b565b811015610cd457600086604051610bff91906147f8565b9081526020016040518091039020600401600182610c1d91906148af565b81548110610c2e57610c2d6145ec565b5b9060005260206000209060050201600087604051610c4c91906147f8565b90815260200160405180910390206004018281548110610c6f57610c6e6145ec565b5b9060005260206000209060050201600082018160000160008201816000019081610c999190614a90565b506001820154816001015550506002820154816002015560038201548160030155600482015481600401559050508080600101915050610bb7565b50600085604051610ce591906147f8565b9081526020016040518091039020600401805480610d0657610d05614b78565b5b6001900381819060005260206000209060050201600080820160008082016000610d3091906137b3565b60018201600090555050600282016000905560038201600090556004820160009055505090557f2ed61a0210ac187e27d0ee1d65843b740628d6f3139dd67bd6d0fb428f9f7fe185858585604051610d8b9493929190614ba7565b60405180910390a15050505050565b610da48133612354565b60008082604051610db591906147f8565b90815260200160405180910390206040518060a00160405290816000820160009054906101000a900473ffffffffffffffffffffffffffffffffffffffff1673ffffffffffffffffffffffffffffffffffffffff1673ffffffffffffffffffffffffffffffffffffffff168152602001600182018054610e349061464a565b80601f0160208091040260200160405190810160405280929190818152602001828054610e609061464a565b8015610ead5780601f10610e8257610100808354040283529160200191610ead565b820191906000526020600020905b815481529060010190602001808311610e9057829003601f168201915b5050505050815260200160028201805480602002602001604051908101604052809291908181526020016000905b8282101561107e57838290600052602060002090600602016040518060a001604052908160008201604051806040016040529081600082018054610f1e9061464a565b80601f0160208091040260200160405190810160405280929190818152602001828054610f4a9061464a565b8015610f975780601f10610f6c57610100808354040283529160200191610f97565b820191906000526020600020905b815481529060010190602001808311610f7a57829003601f168201915b5050505050815260200160018201548152505081526020016002820154815260200160038201548152602001600482018054610fd29061464a565b80601f0160208091040260200160405190810160405280929190818152602001828054610ffe9061464a565b801561104b5780601f106110205761010080835404028352916020019161104b565b820191906000526020600020905b81548152906001019060200180831161102e57829003601f168201915b505050505081526020016005820160009054906101000a900460ff16151515158152505081526020019060010190610edb565b50505050815260200160038201805480602002602001604051908101604052809291908181526020016000905b828210156111ab5783829060005260206000209060050201604051806080016040529081600082016040518060400160405290816000820180546110ee9061464a565b80601f016020809104026020016040519081016040528092919081815260200182805461111a9061464a565b80156111675780601f1061113c57610100808354040283529160200191611167565b820191906000526020600020905b81548152906001019060200180831161114a57829003601f168201915b5050505050815260200160018201548152505081526020016002820154815260200160038201548152602001600482015481525050815260200190600101906110ab565b50505050815260200160048201805480602002602001604051908101604052809291908181526020016000905b828210156112d857838290600052602060002090600502016040518060800160405290816000820160405180604001604052908160008201805461121b9061464a565b80601f01602080910402602001604051908101604052809291908181526020018280546112479061464a565b80156112945780601f1061126957610100808354040283529160200191611294565b820191906000526020600020905b81548152906001019060200180831161127757829003601f168201915b5050505050815260200160018201548152505081526020016002820154815260200160038201548152602001600482015481525050815260200190600101906111d8565b5050505081525050905060008160800151511115611331578060800160608152507f1477d8ef211ae1f86820b1540a51f7eaea5ce83b0b8493b15409b9fa363a21a28260405161132891906144fb565b60405180910390a15b5050565b61133f8133612354565b6000808260405161135091906147f8565b90815260200160405180910390206040518060a00160405290816000820160009054906101000a900473ffffffffffffffffffffffffffffffffffffffff1673ffffffffffffffffffffffffffffffffffffffff1673ffffffffffffffffffffffffffffffffffffffff1681526020016001820180546113cf9061464a565b80601f01602080910402602001604051908101604052809291908181526020018280546113fb9061464a565b80156114485780601f1061141d57610100808354040283529160200191611448565b820191906000526020600020905b81548152906001019060200180831161142b57829003601f168201915b5050505050815260200160028201805480602002602001604051908101604052809291908181526020016000905b8282101561161957838290600052602060002090600602016040518060a0016040529081600082016040518060400160405290816000820180546114b99061464a565b80601f01602080910402602001604051908101604052809291908181526020018280546114e59061464a565b80156115325780601f1061150757610100808354040283529160200191611532565b820191906000526020600020905b81548152906001019060200180831161151557829003601f168201915b505050505081526020016001820154815250508152602001600282015481526020016003820154815260200160048201805461156d9061464a565b80601f01602080910402602001604051908101604052809291908181526020018280546115999061464a565b80156115e65780601f106115bb576101008083540402835291602001916115e6565b820191906000526020600020905b8154815290600101906020018083116115c957829003601f168201915b505050505081526020016005820160009054906101000a900460ff16151515158152505081526020019060010190611476565b50505050815260200160038201805480602002602001604051908101604052809291908181526020016000905b828210156117465783829060005260206000209060050201604051806080016040529081600082016040518060400160405290816000820180546116899061464a565b80601f01602080910402602001604051908101604052809291908181526020018280546116b59061464a565b80156117025780601f106116d757610100808354040283529160200191611702565b820191906000526020600020905b8154815290600101906020018083116116e557829003601f168201915b505050505081526020016001820154815250508152602001600282015481526020016003820154815260200160048201548152505081526020019060010190611646565b50505050815260200160048201805480602002602001604051908101604052809291908181526020016000905b828210156118735783829060005260206000209060050201604051806080016040529081600082016040518060400160405290816000820180546117b69061464a565b80601f01602080910402602001604051908101604052809291908181526020018280546117e29061464a565b801561182f5780601f106118045761010080835404028352916020019161182f565b820191906000526020600020905b81548152906001019060200180831161181257829003601f168201915b505050505081526020016001820154815250508152602001600282015481526020016003820154815260200160048201548152505081526020019060010190611773565b50505050815250509050600081604001515111156118cc578060400160608152507fba7ee6aabac24fca5d8b65a4b06e79980134938024ad26356716467e4b11ab6a826040516118c391906144fb565b60405180910390a15b5050565b60606118dc8233612354565b6000826040516118ec91906147f8565b9081526020016040518091039020600201805480602002602001604051908101604052809291908181526020016000905b82821015611ac057838290600052602060002090600602016040518060a0016040529081600082016040518060400160405290816000820180546119609061464a565b80601f016020809104026020016040519081016040528092919081815260200182805461198c9061464a565b80156119d95780601f106119ae576101008083540402835291602001916119d9565b820191906000526020600020905b8154815290600101906020018083116119bc57829003601f168201915b5050505050815260200160018201548152505081526020016002820154815260200160038201548152602001600482018054611a149061464a565b80601f0160208091040260200160405190810160405280929190818152602001828054611a409061464a565b8015611a8d5780601f10611a6257610100808354040283529160200191611a8d565b820191906000526020600020905b815481529060010190602001808311611a7057829003601f168201915b505050505081526020016005820160009054906101000a900460ff1615151515815250508152602001906001019061191d565b505050509050919050565b600080600090505b600086604051611ae391906147f8565b908152602001604051809103902060020180549050811015611d5a5760008087604051611b1091906147f8565b90815260200160405180910390206002018281548110611b3357611b326145ec565b5b90600052602060002090600602016040518060a001604052908160008201604051806040016040529081600082018054611b6c9061464a565b80601f0160208091040260200160405190810160405280929190818152602001828054611b989061464a565b8015611be55780601f10611bba57610100808354040283529160200191611be5565b820191906000526020600020905b815481529060010190602001808311611bc857829003601f168201915b5050505050815260200160018201548152505081526020016002820154815260200160038201548152602001600482018054611c209061464a565b80601f0160208091040260200160405190810160405280929190818152602001828054611c4c9061464a565b8015611c995780601f10611c6e57610100808354040283529160200191611c99565b820191906000526020600020905b815481529060010190602001808311611c7c57829003601f168201915b505050505081526020016005820160009054906101000a900460ff1615151515815250509050858160200151148015611cd55750848160400151145b8015611d30575083604051602001611ced91906147f8565b604051602081830303815290604052805190602001208160600151604051602001611d1891906147f8565b60405160208183030381529060405280519060200120145b8015611d3d575080608001515b15611d4c578192505050611d7f565b508080600101915050611ad3565b507fffffffffffffffffffffffffffffffffffffffffffffffffffffffffffffffff90505b949350505050565b600080600090505b600086604051611d9f91906147f8565b908152602001604051809103902060030180549050811015611f1a5760008087604051611dcc91906147f8565b90815260200160405180910390206003018281548110611def57611dee6145ec565b5b906000526020600020906005020160405180608001604052908160008201604051806040016040529081600082018054611e289061464a565b80601f0160208091040260200160405190810160405280929190818152602001828054611e549061464a565b8015611ea15780601f10611e7657610100808354040283529160200191611ea1565b820191906000526020600020905b815481529060010190602001808311611e8457829003601f168201915b50505050508152602001600182015481525050815260200160028201548152602001600382015481526020016004820154815250509050858160200151148015611eee5750848160400151145b8015611efd5750838160600151145b15611f0c578192505050611f3f565b508080600101915050611d8f565b507fffffffffffffffffffffffffffffffffffffffffffffffffffffffffffffffff90505b949350505050565b600073ffffffffffffffffffffffffffffffffffffffff16600083604051611f6f91906147f8565b908152602001604051809103902060000160009054906101000a900473ffffffffffffffffffffffffffffffffffffffff1673ffffffffffffffffffffffffffffffffffffffff1614611ff7576040517f08c379a0000000000000000000000000000000000000000000000000000000008152600401611fee90614c3f565b60405180910390fd5b6000808360405161200891906147f8565b90815260200160405180910390209050338160000160006101000a81548173ffffffffffffffffffffffffffffffffffffffff021916908373ffffffffffffffffffffffffffffffffffffffff1602179055508181600101908161206c9190614c5f565b506001839080600181540180825580915050600190039060005260206000200160009091909190915090816120a19190614c5f565b507fe368127686f59c7c4156573e0842395fd43d44ff1c7c9ef4de4d05f7689902f883336040516120d3929190614d31565b60405180910390a1505050565b6120ea8433612354565b60006120f885858585611acb565b90507fffffffffffffffffffffffffffffffffffffffffffffffffffffffffffffffff810361215c576040517f08c379a000000000000000000000000000000000000000000000000000000000815260040161215390614dad565b60405180910390fd5b6000808660405161216d91906147f8565b908152602001604051809103902060020182815481106121905761218f6145ec565b5b906000526020600020906006020160050160006101000a81548160ff0219169083151502179055507f4dfb774166d310e16c4171807643c7899734df620f5625531f047b18d90ca00f858585856040516121ed9493929190614dcd565b60405180910390a15050505050565b60606122088233612354565b60008260405161221891906147f8565b9081526020016040518091039020600401805480602002602001604051908101604052809291908181526020016000905b8282101561234957838290600052602060002090600502016040518060800160405290816000820160405180604001604052908160008201805461228c9061464a565b80601f01602080910402602001604051908101604052809291908181526020018280546122b89061464a565b80156123055780601f106122da57610100808354040283529160200191612305565b820191906000526020600020905b8154815290600101906020018083116122e857829003601f168201915b505050505081526020016001820154815250508152602001600282015481526020016003820154815260200160048201548152505081526020019060010190612249565b505050509050919050565b600073ffffffffffffffffffffffffffffffffffffffff1660008360405161237c91906147f8565b908152602001604051809103902060000160009054906101000a900473ffffffffffffffffffffffffffffffffffffffff1673ffffffffffffffffffffffffffffffffffffffff160361240657816040517f33ed44d00000000000000000000000000000000000000000000000000000000081526004016123fd91906144fb565b60405180910390fd5b8073ffffffffffffffffffffffffffffffffffffffff1660008360405161242d91906147f8565b908152602001604051809103902060000160009054906101000a900473ffffffffffffffffffffffffffffffffffffffff1673ffffffffffffffffffffffffffffffffffffffff16146124b95780826040517f884ca5870000000000000000000000000000000000000000000000000000000081526004016124b0929190613f09565b60405180910390fd5b5050565b6124c78533612354565b600060405180604001604052808681526020014281525090506000604051806080016040528083815260200186815260200185815260200184815250905060008760405161251591906147f8565b9081526020016040518091039020600301819080600181540180825580915050600190039060005260206000209060050201600090919091909150600082015181600001600082015181600001908161256e9190614c5f565b5060208201518160010155505060208201518160020155604082015181600301556060820151816004015550507feb9a931c6d8395360f5cc26d535ca1cc9e509d99611cffec3b563f5a8d7f607387878787876040516125d2959493929190614e20565b60405180910390a150505050505050565b60606125ef8233612354565b6000826040516125ff91906147f8565b9081526020016040518091039020600101805461261b9061464a565b80601f01602080910402602001604051908101604052809291908181526020018280546126479061464a565b80156126945780601f1061266957610100808354040283529160200191612694565b820191906000526020600020905b81548152906001019060200180831161267757829003601f168201915b50505050509050919050565b6126aa8433612354565b60006126b885858585610975565b90507fffffffffffffffffffffffffffffffffffffffffffffffffffffffffffffffff810361271c576040517f08c379a000000000000000000000000000000000000000000000000000000000815260040161271390614ecd565b60405180910390fd5b60008190505b600160008760405161273491906147f8565b908152602001604051809103902060030180549050612753919061487b565b81101561283f5760008660405161276a91906147f8565b908152602001604051809103902060030160018261278891906148af565b81548110612799576127986145ec565b5b90600052602060002090600502016000876040516127b791906147f8565b908152602001604051809103902060030182815481106127da576127d96145ec565b5b90600052602060002090600502016000820181600001600082018160000190816128049190614a90565b506001820154816001015550506002820154816002015560038201548160030155600482015481600401559050508080600101915050612722565b5060008560405161285091906147f8565b908152602001604051809103902060030180548061287157612870614b78565b5b600190038181906000526020600020906005020160008082016000808201600061289b91906137b3565b60018201600090555050600282016000905560038201600090556004820160009055505090557fcc269385a3a1cdf000354e72b6e7d3d676ddb7044bcb5a2407bcec25f0c4ae71858585856040516128f69493929190614ba7565b60405180910390a15050505050565b61290f8233612354565b6000815111612953576040517f08c379a000000000000000000000000000000000000000000000000000000000815260040161294a90614f39565b60405180910390fd5b8060008360405161296491906147f8565b908152602001604051809103902060010190816129819190614c5f565b507fdd1009f0c9b0ffc10477ed122d83b8adf3aa18586df90bed4dca5212cfc7a28782826040516129b3929190614f59565b60405180910390a15050565b6129c98533612354565b6000604051806040016040528086815260200142815250905060006040518060800160405280838152602001868152602001858152602001848152509050600087604051612a1791906147f8565b90815260200160405180910390206004018190806001815401808255809150506001900390600052602060002090600502016000909190919091506000820151816000016000820151816000019081612a709190614c5f565b5060208201518160010155505060208201518160020155604082015181600301556060820151816004015550507f7a048f44bc7365074de10866787736126207722e5197156882dec6586cf70eed8787878787604051612ad4959493929190614e20565b60405180910390a150505050505050565b612aef8233612354565b6000815111612b33576040517f08c379a0000000000000000000000000000000000000000000000000000000008152600401612b2a90614fdc565b60405180910390fd5b600073ffffffffffffffffffffffffffffffffffffffff16600082604051612b5b91906147f8565b908152602001604051809103902060000160009054906101000a900473ffffffffffffffffffffffffffffffffffffffff1673ffffffffffffffffffffffffffffffffffffffff1614612be3576040517f08c379a0000000000000000000000000000000000000000000000000000000008152600401612bda90615048565b60405180910390fd5b60008083604051612bf491906147f8565b9081526020016040518091039020905060008083604051612c1591906147f8565b908152602001604051809103902090508160000160009054906101000a900473ffffffffffffffffffffffffffffffffffffffff168160000160006101000a81548173ffffffffffffffffffffffffffffffffffffffff021916908373ffffffffffffffffffffffffffffffffffffffff16021790555081600101816001019081612ca09190615093565b50806002016000612cb191906137f3565b60005b8260020180549050811015612da25781600201836002018281548110612cdd57612cdc6145ec565b5b90600052602060002090600602019080600181540180825580915050600190039060005260206000209060060201600090919091909150600082018160000160008201816000019081612d309190614a90565b50600182015481600101555050600282015481600201556003820154816003015560048201816004019081612d659190614a90565b506005820160009054906101000a900460ff168160050160006101000a81548160ff02191690831515021790555050508080600101915050612cb4565b50806003016000612db39190613817565b60005b8260030180549050811015612e6c5781600301836003018281548110612ddf57612dde6145ec565b5b90600052602060002090600502019080600181540180825580915050600190039060005260206000209060050201600090919091909150600082018160000160008201816000019081612e329190614a90565b5060018201548160010155505060028201548160020155600382015481600301556004820154816004015550508080600101915050612db6565b50806004016000612e7d919061383b565b60005b8260040180549050811015612f365781600401836004018281548110612ea957612ea86145ec565b5b90600052602060002090600502019080600181540180825580915050600190039060005260206000209060050201600090919091909150600082018160000160008201816000019081612efc9190614a90565b5060018201548160010155505060028201548160020155600382015481600301556004820154816004015550508080600101915050612e80565b5060005b600180549050811015612ff55784604051602001612f5891906147f8565b6040516020818303038152906040528051906020012060018281548110612f8257612f816145ec565b5b90600052602060002001604051602001612f9c919061471e565b6040516020818303038152906040528051906020012003612fe8578360018281548110612fcc57612fcb6145ec565b5b906000526020600020019081612fe29190614c5f565b50612ff5565b8080600101915050612f3a565b5060008460405161300691906147f8565b9081526020016040518091039020600080820160006101000a81549073ffffffffffffffffffffffffffffffffffffffff021916905560018201600061304c91906137b3565b60028201600061305c91906137f3565b60038201600061306c9190613817565b60048201600061307c919061383b565b50507f1df2358bacb8b7267e9c8ebe72f0979eebd2eaa5654cc207617cac6d952cecec84846040516130af929190614f59565b60405180910390a150505050565b6130c78533612354565b6000604051806040016040528086815260200142815250905060006040518060a0016040528083815260200186815260200185815260200184815260200160011515815250905060008760405161311e91906147f8565b908152602001604051809103902060020181908060018154018082558091505060019003906000526020600020906006020160009091909190915060008201518160000160008201518160000190816131779190614c5f565b50602082015181600101555050602082015181600201556040820151816003015560608201518160040190816131ad9190614c5f565b5060808201518160050160006101000a81548160ff02191690831515021790555050507f3dfabda0da8ad5f5c2f79f595a5ebe69ffd081c62ceec1185a5c8ca882537457878787878760405161320795949392919061517b565b60405180910390a150505050505050565b6132228133612354565b6000808260405161323391906147f8565b90815260200160405180910390206040518060a00160405290816000820160009054906101000a900473ffffffffffffffffffffffffffffffffffffffff1673ffffffffffffffffffffffffffffffffffffffff1673ffffffffffffffffffffffffffffffffffffffff1681526020016001820180546132b29061464a565b80601f01602080910402602001604051908101604052809291908181526020018280546132de9061464a565b801561332b5780601f106133005761010080835404028352916020019161332b565b820191906000526020600020905b81548152906001019060200180831161330e57829003601f168201915b5050505050815260200160028201805480602002602001604051908101604052809291908181526020016000905b828210156134fc57838290600052602060002090600602016040518060a00160405290816000820160405180604001604052908160008201805461339c9061464a565b80601f01602080910402602001604051908101604052809291908181526020018280546133c89061464a565b80156134155780601f106133ea57610100808354040283529160200191613415565b820191906000526020600020905b8154815290600101906020018083116133f857829003601f168201915b50505050508152602001600182015481525050815260200160028201548152602001600382015481526020016004820180546134509061464a565b80601f016020809104026020016040519081016040528092919081815260200182805461347c9061464a565b80156134c95780601f1061349e576101008083540402835291602001916134c9565b820191906000526020600020905b8154815290600101906020018083116134ac57829003601f168201915b505050505081526020016005820160009054906101000a900460ff16151515158152505081526020019060010190613359565b50505050815260200160038201805480602002602001604051908101604052809291908181526020016000905b8282101561362957838290600052602060002090600502016040518060800160405290816000820160405180604001604052908160008201805461356c9061464a565b80601f01602080910402602001604051908101604052809291908181526020018280546135989061464a565b80156135e55780601f106135ba576101008083540402835291602001916135e5565b820191906000526020600020905b8154815290600101906020018083116135c857829003601f168201915b505050505081526020016001820154815250508152602001600282015481526020016003820154815260200160048201548152505081526020019060010190613529565b50505050815260200160048201805480602002602001604051908101604052809291908181526020016000905b828210156137565783829060005260206000209060050201604051806080016040529081600082016040518060400160405290816000820180546136999061464a565b80601f01602080910402602001604051908101604052809291908181526020018280546136c59061464a565b80156137125780601f106136e757610100808354040283529160200191613712565b820191906000526020600020905b8154815290600101906020018083116136f557829003601f168201915b505050505081526020016001820154815250508152602001600282015481526020016003820154815260200160048201548152505081526020019060010190613656565b50505050815250509050600081606001515111156137af578060600160608152507f7f7f78f9f42e78f687c1cfe21d82475d61bc662ecf8ddbe3c5c937019920ca48826040516137a691906144fb565b60405180910390a15b5050565b5080546137bf9061464a565b6000825580601f106137d157506137f0565b601f0160209004906000526020600020908101906137ef919061385f565b5b50565b5080546000825560060290600052602060002090810190613814919061387c565b50565b508054600082556005029060005260206000209081019061383891906138e6565b50565b508054600082556005029060005260206000209081019061385c9190613934565b50565b5b80821115613878576000816000905550600101613860565b5090565b5b808211156138e25760008082016000808201600061389b91906137b3565b60018201600090555050600282016000905560038201600090556004820160006138c591906137b3565b6005820160006101000a81549060ff02191690555060060161387d565b5090565b5b808211156139305760008082016000808201600061390591906137b3565b60018201600090555050600282016000905560038201600090556004820160009055506005016138e7565b5090565b5b8082111561397e5760008082016000808201600061395391906137b3565b6001820160009055505060028201600090556003820160009055600482016000905550600501613935565b5090565b6000604051905090565b600080fd5b600080fd5b600073ffffffffffffffffffffffffffffffffffffffff82169050919050565b60006139c182613996565b9050919050565b6139d1816139b6565b81146139dc57600080fd5b50565b6000813590506139ee816139c8565b92915050565b600060208284031215613a0a57613a0961398c565b5b6000613a18848285016139df565b91505092915050565b600081519050919050565b600082825260208201905092915050565b6000819050602082019050919050565b600081519050919050565b600082825260208201905092915050565b60005b83811015613a87578082015181840152602081019050613a6c565b60008484015250505050565b6000601f19601f8301169050919050565b6000613aaf82613a4d565b613ab98185613a58565b9350613ac9818560208601613a69565b613ad281613a93565b840191505092915050565b6000613ae98383613aa4565b905092915050565b6000602082019050919050565b6000613b0982613a21565b613b138185613a2c565b935083602082028501613b2585613a3d565b8060005b85811015613b615784840389528151613b428582613add565b9450613b4d83613af1565b925060208a01995050600181019050613b29565b50829750879550505050505092915050565b60006020820190508181036000830152613b8d8184613afe565b905092915050565b600080fd5b600080fd5b7f4e487b7100000000000000000000000000000000000000000000000000000000600052604160045260246000fd5b613bd782613a93565b810181811067ffffffffffffffff82111715613bf657613bf5613b9f565b5b80604052505050565b6000613c09613982565b9050613c158282613bce565b919050565b600067ffffffffffffffff821115613c3557613c34613b9f565b5b613c3e82613a93565b9050602081019050919050565b82818337600083830152505050565b6000613c6d613c6884613c1a565b613bff565b905082815260208101848484011115613c8957613c88613b9a565b5b613c94848285613c4b565b509392505050565b600082601f830112613cb157613cb0613b95565b5b8135613cc1848260208601613c5a565b91505092915050565b600060208284031215613ce057613cdf61398c565b5b600082013567ffffffffffffffff811115613cfe57613cfd613991565b5b613d0a84828501613c9c565b91505092915050565b600081519050919050565b600082825260208201905092915050565b6000819050602082019050919050565b6000819050919050565b613d5281613d3f565b82525050565b60006040830160008301518482036000860152613d758282613aa4565b9150506020830151613d8a6020860182613d49565b508091505092915050565b60006080830160008301518482036000860152613db28282613d58565b9150506020830151613dc76020860182613d49565b506040830151613dda6040860182613d49565b506060830151613ded6060860182613d49565b508091505092915050565b6000613e048383613d95565b905092915050565b6000602082019050919050565b6000613e2482613d13565b613e2e8185613d1e565b935083602082028501613e4085613d2f565b8060005b85811015613e7c5784840389528151613e5d8582613df8565b9450613e6883613e0c565b925060208a01995050600181019050613e44565b50829750879550505050505092915050565b60006020820190508181036000830152613ea88184613e19565b905092915050565b613eb9816139b6565b82525050565b600082825260208201905092915050565b6000613edb82613a4d565b613ee58185613ebf565b9350613ef5818560208601613a69565b613efe81613a93565b840191505092915050565b6000604082019050613f1e6000830185613eb0565b8181036020830152613f308184613ed0565b90509392505050565b613f4281613d3f565b8114613f4d57600080fd5b50565b600081359050613f5f81613f39565b92915050565b60008060008060808587031215613f7f57613f7e61398c565b5b600085013567ffffffffffffffff811115613f9d57613f9c613991565b5b613fa987828801613c9c565b9450506020613fba87828801613f50565b9350506040613fcb87828801613f50565b9250506060613fdc87828801613f50565b91505092959194509250565b613ff181613d3f565b82525050565b600060208201905061400c6000830184613fe8565b92915050565b600081519050919050565b600082825260208201905092915050565b6000819050602082019050919050565b60008115159050919050565b6140538161403e565b82525050565b600060a08301600083015184820360008601526140768282613d58565b915050602083015161408b6020860182613d49565b50604083015161409e6040860182613d49565b50606083015184820360608601526140b68282613aa4565b91505060808301516140cb608086018261404a565b508091505092915050565b60006140e28383614059565b905092915050565b6000602082019050919050565b600061410282614012565b61410c818561401d565b93508360208202850161411e8561402e565b8060005b8581101561415a578484038952815161413b85826140d6565b9450614146836140ea565b925060208a01995050600181019050614122565b50829750879550505050505092915050565b6000602082019050818103600083015261418681846140f7565b905092915050565b600080600080608085870312156141a8576141a761398c565b5b600085013567ffffffffffffffff8111156141c6576141c5613991565b5b6141d287828801613c9c565b94505060206141e387828801613f50565b93505060406141f487828801613f50565b925050606085013567ffffffffffffffff81111561421557614214613991565b5b61422187828801613c9c565b91505092959194509250565b600080604083850312156142445761424361398c565b5b600083013567ffffffffffffffff81111561426257614261613991565b5b61426e85828601613c9c565b925050602083013567ffffffffffffffff81111561428f5761428e613991565b5b61429b85828601613c9c565b9150509250929050565b600081519050919050565b600082825260208201905092915050565b6000819050602082019050919050565b600060808301600083015184820360008601526142ee8282613d58565b91505060208301516143036020860182613d49565b5060408301516143166040860182613d49565b5060608301516143296060860182613d49565b508091505092915050565b600061434083836142d1565b905092915050565b6000602082019050919050565b6000614360826142a5565b61436a81856142b0565b93508360208202850161437c856142c1565b8060005b858110156143b857848403895281516143998582614334565b94506143a483614348565b925060208a01995050600181019050614380565b50829750879550505050505092915050565b600060208201905081810360008301526143e48184614355565b905092915050565b600080604083850312156144035761440261398c565b5b600083013567ffffffffffffffff81111561442157614420613991565b5b61442d85828601613c9c565b925050602061443e858286016139df565b9150509250929050565b600080600080600060a086880312156144645761446361398c565b5b600086013567ffffffffffffffff81111561448257614481613991565b5b61448e88828901613c9c565b955050602086013567ffffffffffffffff8111156144af576144ae613991565b5b6144bb88828901613c9c565b94505060406144cc88828901613f50565b93505060606144dd88828901613f50565b92505060806144ee88828901613f50565b9150509295509295909350565b600060208201905081810360008301526145158184613ed0565b905092915050565b600080600080600060a086880312156145395761453861398c565b5b600086013567ffffffffffffffff81111561455757614556613991565b5b61456388828901613c9c565b955050602086013567ffffffffffffffff81111561458457614583613991565b5b61459088828901613c9c565b94505060406145a188828901613f50565b93505060606145b288828901613f50565b925050608086013567ffffffffffffffff8111156145d3576145d2613991565b5b6145df88828901613c9c565b9150509295509295909350565b7f4e487b7100000000000000000000000000000000000000000000000000000000600052603260045260246000fd5b7f4e487b7100000000000000000000000000000000000000000000000000000000600052602260045260246000fd5b6000600282049050600182168061466257607f821691505b6020821081036146755761467461461b565b5b50919050565b600081905092915050565b60008190508160005260206000209050919050565b600081546146a88161464a565b6146b2818661467b565b945060018216600081146146cd57600181146146e257614715565b60ff1983168652811515820286019350614715565b6146eb85614686565b60005b8381101561470d578154818901526001820191506020810190506146ee565b838801955050505b50505092915050565b600061472a828461469b565b915081905092915050565b7f4e487b7100000000000000000000000000000000000000000000000000000000600052601160045260246000fd5b600061476f82613d3f565b91507fffffffffffffffffffffffffffffffffffffffffffffffffffffffffffffffff82036147a1576147a0614735565b5b600182019050919050565b60006020820190506147c16000830184613eb0565b92915050565b60006147d282613a4d565b6147dc818561467b565b93506147ec818560208601613a69565b80840191505092915050565b600061480482846147c7565b915081905092915050565b7f50726f7065727479205461782072656365697074206e6f7420666f756e640000600082015250565b6000614845601e83613ebf565b91506148508261480f565b602082019050919050565b6000602082019050818103600083015261487481614838565b9050919050565b600061488682613d3f565b915061489183613d3f565b92508282039050818111156148a9576148a8614735565b5b92915050565b60006148ba82613d3f565b91506148c583613d3f565b92508282019050808211156148dd576148dc614735565b5b92915050565b6000815490506148f28161464a565b9050919050565b60006020601f8301049050919050565b600082821b905092915050565b6000600883026149467fffffffffffffffffffffffffffffffffffffffffffffffffffffffffffffffff82614909565b6149508683614909565b95508019841693508086168417925050509392505050565b6000819050919050565b600061498d61498861498384613d3f565b614968565b613d3f565b9050919050565b6000819050919050565b6149a783614972565b6149bb6149b382614994565b848454614916565b825550505050565b600090565b6149d06149c3565b6149db81848461499e565b505050565b5b818110156149ff576149f46000826149c8565b6001810190506149e1565b5050565b601f821115614a4457614a1581614686565b614a1e846148f9565b81016020851015614a2d578190505b614a41614a39856148f9565b8301826149e0565b50505b505050565b600082821c905092915050565b6000614a6760001984600802614a49565b1980831691505092915050565b6000614a808383614a56565b9150826002028217905092915050565b818103614a9e575050614b76565b614aa7826148e3565b67ffffffffffffffff811115614ac057614abf613b9f565b5b614aca825461464a565b614ad5828285614a03565b6000601f831160018114614b045760008415614af2578287015490505b614afc8582614a74565b865550614b6f565b601f198416614b1287614686565b9650614b1d86614686565b60005b82811015614b4557848901548255600182019150600185019450602081019050614b20565b86831015614b625784890154614b5e601f891682614a56565b8355505b6001600288020188555050505b5050505050505b565b7f4e487b7100000000000000000000000000000000000000000000000000000000600052603160045260246000fd5b60006080820190508181036000830152614bc18187613ed0565b9050614bd06020830186613fe8565b614bdd6040830185613fe8565b614bea6060830184613fe8565b95945050505050565b7f486f75736520616c726561647920726567697374657265642e00000000000000600082015250565b6000614c29601983613ebf565b9150614c3482614bf3565b602082019050919050565b60006020820190508181036000830152614c5881614c1c565b9050919050565b614c6882613a4d565b67ffffffffffffffff811115614c8157614c80613b9f565b5b614c8b825461464a565b614c96828285614a03565b600060209050601f831160018114614cc95760008415614cb7578287015190505b614cc18582614a74565b865550614d29565b601f198416614cd786614686565b60005b82811015614cff57848901518255600182019150602085019450602081019050614cda565b86831015614d1c5784890151614d18601f891682614a56565b8355505b6001600288020188555050505b505050505050565b60006040820190508181036000830152614d4b8185613ed0565b9050614d5a6020830184613eb0565b9392505050565b7f4c65617365206e6f7420666f756e642e00000000000000000000000000000000600082015250565b6000614d97601083613ebf565b9150614da282614d61565b602082019050919050565b60006020820190508181036000830152614dc681614d8a565b9050919050565b60006080820190508181036000830152614de78187613ed0565b9050614df66020830186613fe8565b614e036040830185613fe8565b8181036060830152614e158184613ed0565b905095945050505050565b600060a0820190508181036000830152614e3a8188613ed0565b90508181036020830152614e4e8187613ed0565b9050614e5d6040830186613fe8565b614e6a6060830185613fe8565b614e776080830184613fe8565b9695505050505050565b7f5574696c6974792042696c6c206e6f7420666f756e6400000000000000000000600082015250565b6000614eb7601683613ebf565b9150614ec282614e81565b602082019050919050565b60006020820190508181036000830152614ee681614eaa565b9050919050565b7f4950465320686173682063616e6e6f7420626520656d7074792e000000000000600082015250565b6000614f23601a83613ebf565b9150614f2e82614eed565b602082019050919050565b60006020820190508181036000830152614f5281614f16565b9050919050565b60006040820190508181036000830152614f738185613ed0565b90508181036020830152614f878184613ed0565b90509392505050565b7f4e657720616464726573732063616e6e6f7420626520656d7074792e00000000600082015250565b6000614fc6601c83613ebf565b9150614fd182614f90565b602082019050919050565b60006020820190508181036000830152614ff581614fb9565b9050919050565b7f4e6577206164647265737320616c726561647920696e207573652e0000000000600082015250565b6000615032601b83613ebf565b915061503d82614ffc565b602082019050919050565b6000602082019050818103600083015261506181615025565b9050919050565b6000815490506150778161464a565b9050919050565b60008190508160005260206000209050919050565b8181036150a1575050615179565b6150aa82615068565b67ffffffffffffffff8111156150c3576150c2613b9f565b5b6150cd825461464a565b6150d8828285614a03565b6000601f83116001811461510757600084156150f5578287015490505b6150ff8582614a74565b865550615172565b601f1984166151158761507e565b965061512086614686565b60005b8281101561514857848901548255600182019150600185019450602081019050615123565b868310156151655784890154615161601f891682614a56565b8355505b6001600288020188555050505b5050505050505b565b600060a08201905081810360008301526151958188613ed0565b905081810360208301526151a98187613ed0565b90506151b86040830186613fe8565b6151c56060830185613fe8565b81810360808301526151d78184613ed0565b9050969550505050505056fea2646970667358221220a8839f77ac120d10db1d914036348437d01d4a7b599b95fd0bb65df2fdf3ba5e64736f6c63430008180033",
  "linkReferences": {},
  "deployedLinkReferences": {}
}