{
  "_format": "hh-sol-artifact-1",
  "contractName": "HouseOwnershipRegistry",
  "sourceName": "contracts/HouseOwnership.sol",
  "abi": [
    {
      "inputs": [
        {
          "internalType": "address",
          "name": "caller",
          "type": "address"
        },
        {
          "internalType": "string",
          "name": "houseAddress",
          "type": "string"
        }
      ],
      "name": "NotOwner",
      "type": "error"
    },
    {
      "inputs": [
        {
          "internalType": "string",
          "name": "houseAddress",
          "type": "string"
        }
      ],
      "name": "PropertyNotRegistered",
      "type": "error"
    },
    {
      "anonymous": false,
      "inputs": [
        {
          "indexed": false,
          "internalType": "string",
          "name": "houseAddress",
          "type": "string"
        },
        {
          "indexed": false,
          "internalType": "address",
          "name": "owner",
          "type": "address"
        }
      ],
      "name": "HouseRegistered",
      "type": "event"
    },
    {
      "anonymous": false,
      "inputs": [
        {
          "indexed": false,
          "internalType": "string",
          "name": "houseAddress",
          "type": "string"
        },
        {
          "indexed": false,
          "internalType": "string",
          "name": "documentIPFSHash",
          "type": "string"
        },
        {
          "indexed": false,
          "internalType": "uint256",
          "name": "startDate",
          "type": "uint256"
        },
        {
          "indexed": false,
          "internalType": "uint256",
          "name": "endDate",
          "type": "uint256"
        },
        {
          "indexed": false,
          "internalType": "string",
          "name": "tenantName",
          "type": "string"
        }
      ],
      "name": "LeaseAdded",
      "type": "event"
    },
    {
      "anonymous": false,
      "inputs": [
        {
          "indexed": false,
          "internalType": "string",
          "name": "houseAddress",
          "type": "string"
        },
        {
          "indexed": false,
          "internalType": "uint256",
          "name": "startDate",
          "type": "uint256"
        },
        {
          "indexed": false,
          "internalType": "uint256",
          "name": "endDate",
          "type": "uint256"
        },
        {
          "indexed": false,
          "internalType": "string",
          "name": "tenantName",
          "type": "string"
        }
      ],
      "name": "LeaseRemoved",
      "type": "event"
    },
    {
      "anonymous": false,
      "inputs": [
        {
          "indexed": false,
          "internalType": "string",
          "name": "houseAddress",
          "type": "string"
        },
        {
          "indexed": false,
          "internalType": "uint256",
          "name": "startDate",
          "type": "uint256"
        },
        {
          "indexed": false,
          "internalType": "uint256",
          "name": "endDate",
          "type": "uint256"
        },
        {
          "indexed": false,
          "internalType": "uint256",
          "name": "amount",
          "type": "uint256"
        }
      ],
      "name": "PropertTaxReceiptRemoved",
      "type": "event"
    },
    {
      "anonymous": false,
      "inputs": [
        {
          "indexed": false,
          "internalType": "string",
          "name": "houseAddress",
          "type": "string"
        },
        {
          "indexed": false,
          "internalType": "string",
          "name": "documentIPFSHash",
          "type": "string"
        },
        {
          "indexed": false,
          "internalType": "uint256",
          "name": "startDate",
          "type": "uint256"
        },
        {
          "indexed": false,
          "internalType": "uint256",
          "name": "endDate",
          "type": "uint256"
        },
        {
          "indexed": false,
          "internalType": "uint256",
          "name": "amount",
          "type": "uint256"
        }
      ],
      "name": "PropertyTaxReceiptAdded",
      "type": "event"
    },
    {
      "anonymous": false,
      "inputs": [
        {
          "indexed": false,
          "internalType": "string",
          "name": "houseAddress",
          "type": "string"
        },
        {
          "indexed": false,
          "internalType": "string",
          "name": "documentIPFSHash",
          "type": "string"
        },
        {
          "indexed": false,
          "internalType": "uint256",
          "name": "startDate",
          "type": "uint256"
        },
        {
          "indexed": false,
          "internalType": "uint256",
          "name": "endDate",
          "type": "uint256"
        },
        {
          "indexed": false,
          "internalType": "uint256",
          "name": "amount",
          "type": "uint256"
        }
      ],
      "name": "UtilityBillAdded",
      "type": "event"
    },
    {
      "anonymous": false,
      "inputs": [
        {
          "indexed": false,
          "internalType": "string",
          "name": "houseAddress",
          "type": "string"
        },
        {
          "indexed": false,
          "internalType": "uint256",
          "name": "startDate",
          "type": "uint256"
        },
        {
          "indexed": false,
          "internalType": "uint256",
          "name": "endDate",
          "type": "uint256"
        },
        {
          "indexed": false,
          "internalType": "uint256",
          "name": "amount",
          "type": "uint256"
        }
      ],
      "name": "UtilityBillRemoved",
      "type": "event"
    },
    {
      "anonymous": false,
      "inputs": [
        {
          "indexed": false,
          "internalType": "string",
          "name": "houseAddress",
          "type": "string"
        }
      ],
      "name": "allLeasesRemoved",
      "type": "event"
    },
    {
      "anonymous": false,
      "inputs": [
        {
          "indexed": false,
          "internalType": "string",
          "name": "houseAddress",
          "type": "string"
        }
      ],
      "name": "allPropertyTaxReceiptsRemoved",
      "type": "event"
    },
    {
      "anonymous": false,
      "inputs": [
        {
          "indexed": false,
          "internalType": "string",
          "name": "houseAddress",
          "type": "string"
        }
      ],
      "name": "allUtilityBillsRemoved",
      "type": "event"
    },
    {
      "inputs": [
        {
          "internalType": "string",
          "name": "houseAddress",
          "type": "string"
        },
        {
          "internalType": "string",
          "name": "documentIPFSHash",
          "type": "string"
        },
        {
          "internalType": "uint256",
          "name": "startDate",
          "type": "uint256"
        },
        {
          "internalType": "uint256",
          "name": "endDate",
          "type": "uint256"
        },
        {
          "internalType": "string",
          "name": "tenantName",
          "type": "string"
        }
      ],
      "name": "addLease",
      "outputs": [],
      "stateMutability": "nonpayable",
      "type": "function"
    },
    {
      "inputs": [
        {
          "internalType": "string",
          "name": "houseAddress",
          "type": "string"
        },
        {
          "internalType": "string",
          "name": "documentIPFSHash",
          "type": "string"
        },
        {
          "internalType": "uint256",
          "name": "startDate",
          "type": "uint256"
        },
        {
          "internalType": "uint256",
          "name": "endDate",
          "type": "uint256"
        },
        {
          "internalType": "uint256",
          "name": "amount",
          "type": "uint256"
        }
      ],
      "name": "addPropertyTax",
      "outputs": [],
      "stateMutability": "nonpayable",
      "type": "function"
    },
    {
      "inputs": [
        {
          "internalType": "string",
          "name": "houseAddress",
          "type": "string"
        },
        {
          "internalType": "string",
          "name": "documentIPFSHash",
          "type": "string"
        },
        {
          "internalType": "uint256",
          "name": "startDate",
          "type": "uint256"
        },
        {
          "internalType": "uint256",
          "name": "endDate",
          "type": "uint256"
        },
        {
          "internalType": "uint256",
          "name": "amount",
          "type": "uint256"
        }
      ],
      "name": "addUtilityBill",
      "outputs": [],
      "stateMutability": "nonpayable",
      "type": "function"
    },
    {
      "inputs": [
        {
          "internalType": "string",
          "name": "houseAddress",
          "type": "string"
        },
        {
          "internalType": "uint256",
          "name": "startDate",
          "type": "uint256"
        },
        {
          "internalType": "uint256",
          "name": "endDate",
          "type": "uint256"
        },
        {
          "internalType": "string",
          "name": "tenantName",
          "type": "string"
        }
      ],
      "name": "findLeaseIndex",
      "outputs": [
        {
          "internalType": "uint256",
          "name": "",
          "type": "uint256"
        }
      ],
      "stateMutability": "view",
      "type": "function"
    },
    {
      "inputs": [
        {
          "internalType": "string",
          "name": "houseAddress",
          "type": "string"
        },
        {
          "internalType": "uint256",
          "name": "startDate",
          "type": "uint256"
        },
        {
          "internalType": "uint256",
          "name": "endDate",
          "type": "uint256"
        },
        {
          "internalType": "uint256",
          "name": "amount",
          "type": "uint256"
        }
      ],
      "name": "findPropertyTaxIndex",
      "outputs": [
        {
          "internalType": "uint256",
          "name": "",
          "type": "uint256"
        }
      ],
      "stateMutability": "view",
      "type": "function"
    },
    {
      "inputs": [
        {
          "internalType": "string",
          "name": "houseAddress",
          "type": "string"
        },
        {
          "internalType": "uint256",
          "name": "startDate",
          "type": "uint256"
        },
        {
          "internalType": "uint256",
          "name": "endDate",
          "type": "uint256"
        },
        {
          "internalType": "uint256",
          "name": "amount",
          "type": "uint256"
        }
      ],
      "name": "findUtilityBillIndex",
      "outputs": [
        {
          "internalType": "uint256",
          "name": "",
          "type": "uint256"
        }
      ],
      "stateMutability": "view",
      "type": "function"
    },
    {
      "inputs": [
        {
          "internalType": "string",
          "name": "houseAddress",
          "type": "string"
        }
      ],
      "name": "getDocumentHash",
      "outputs": [
        {
          "internalType": "string",
          "name": "",
          "type": "string"
        }
      ],
      "stateMutability": "view",
      "type": "function"
    },
    {
      "inputs": [
        {
          "internalType": "string",
          "name": "houseAddress",
          "type": "string"
        }
      ],
      "name": "getLeases",
      "outputs": [
        {
          "components": [
            {
              "components": [
                {
                  "internalType": "string",
                  "name": "documentCID",
                  "type": "string"
                },
                {
                  "internalType": "uint256",
                  "name": "uploadedAt",
                  "type": "uint256"
                }
              ],
              "internalType": "struct Document",
              "name": "document",
              "type": "tuple"
            },
            {
              "internalType": "uint256",
              "name": "startDate",
              "type": "uint256"
            },
            {
              "internalType": "uint256",
              "name": "endDate",
              "type": "uint256"
            },
            {
              "internalType": "string",
              "name": "tenantName",
              "type": "string"
            },
            {
              "internalType": "bool",
              "name": "isActive",
              "type": "bool"
            }
          ],
          "internalType": "struct Lease[]",
          "name": "",
          "type": "tuple[]"
        }
      ],
      "stateMutability": "view",
      "type": "function"
    },
    {
      "inputs": [
        {
          "internalType": "string",
          "name": "houseAddress",
          "type": "string"
        }
      ],
      "name": "getPropertyTaxReceipts",
      "outputs": [
        {
          "components": [
            {
              "components": [
                {
                  "internalType": "string",
                  "name": "documentCID",
                  "type": "string"
                },
                {
                  "internalType": "uint256",
                  "name": "uploadedAt",
                  "type": "uint256"
                }
              ],
              "internalType": "struct Document",
              "name": "document",
              "type": "tuple"
            },
            {
              "internalType": "uint256",
              "name": "startDate",
              "type": "uint256"
            },
            {
              "internalType": "uint256",
              "name": "endDate",
              "type": "uint256"
            },
            {
              "internalType": "uint256",
              "name": "amount",
              "type": "uint256"
            }
          ],
          "internalType": "struct PropertyTax[]",
          "name": "",
          "type": "tuple[]"
        }
      ],
      "stateMutability": "view",
      "type": "function"
    },
    {
      "inputs": [
        {
          "internalType": "string",
          "name": "houseAddress",
          "type": "string"
        }
      ],
      "name": "getUtilityBills",
      "outputs": [
        {
          "components": [
            {
              "components": [
                {
                  "internalType": "string",
                  "name": "documentCID",
                  "type": "string"
                },
                {
                  "internalType": "uint256",
                  "name": "uploadedAt",
                  "type": "uint256"
                }
              ],
              "internalType": "struct Document",
              "name": "document",
              "type": "tuple"
            },
            {
              "internalType": "uint256",
              "name": "startDate",
              "type": "uint256"
            },
            {
              "internalType": "uint256",
              "name": "endDate",
              "type": "uint256"
            },
            {
              "internalType": "uint256",
              "name": "amount",
              "type": "uint256"
            }
          ],
          "internalType": "struct UtilityBill[]",
          "name": "",
          "type": "tuple[]"
        }
      ],
      "stateMutability": "view",
      "type": "function"
    },
    {
      "inputs": [
        {
          "internalType": "string",
          "name": "",
          "type": "string"
        }
      ],
      "name": "houseRegistry",
      "outputs": [
        {
          "internalType": "address",
          "name": "owner",
          "type": "address"
        },
        {
          "internalType": "string",
          "name": "documentIPFSHash",
          "type": "string"
        }
      ],
      "stateMutability": "view",
      "type": "function"
    },
    {
      "inputs": [
        {
          "internalType": "string",
          "name": "houseAddress",
          "type": "string"
        },
        {
          "internalType": "string",
          "name": "documentIPFSHash",
          "type": "string"
        }
      ],
      "name": "registerHouse",
      "outputs": [],
      "stateMutability": "nonpayable",
      "type": "function"
    },
    {
      "inputs": [
        {
          "internalType": "string",
          "name": "houseAddress",
          "type": "string"
        }
      ],
      "name": "removeAllLeases",
      "outputs": [],
      "stateMutability": "nonpayable",
      "type": "function"
    },
    {
      "inputs": [
        {
          "internalType": "string",
          "name": "houseAddress",
          "type": "string"
        }
      ],
      "name": "removeAllPropertyTaxReceipts",
      "outputs": [],
      "stateMutability": "nonpayable",
      "type": "function"
    },
    {
      "inputs": [
        {
          "internalType": "string",
          "name": "houseAddress",
          "type": "string"
        }
      ],
      "name": "removeAllUtilityBills",
      "outputs": [],
      "stateMutability": "nonpayable",
      "type": "function"
    },
    {
      "inputs": [
        {
          "internalType": "string",
          "name": "houseAddress",
          "type": "string"
        },
        {
          "internalType": "uint256",
          "name": "startDate",
          "type": "uint256"
        },
        {
          "internalType": "uint256",
          "name": "endDate",
          "type": "uint256"
        },
        {
          "internalType": "string",
          "name": "tenantName",
          "type": "string"
        }
      ],
      "name": "removeLease",
      "outputs": [],
      "stateMutability": "nonpayable",
      "type": "function"
    },
    {
      "inputs": [
        {
          "internalType": "string",
          "name": "houseAddress",
          "type": "string"
        },
        {
          "internalType": "uint256",
          "name": "startDate",
          "type": "uint256"
        },
        {
          "internalType": "uint256",
          "name": "endDate",
          "type": "uint256"
        },
        {
          "internalType": "uint256",
          "name": "amount",
          "type": "uint256"
        }
      ],
      "name": "removePropertyTaxReceipt",
      "outputs": [],
      "stateMutability": "nonpayable",
      "type": "function"
    },
    {
      "inputs": [
        {
          "internalType": "string",
          "name": "houseAddress",
          "type": "string"
        },
        {
          "internalType": "uint256",
          "name": "startDate",
          "type": "uint256"
        },
        {
          "internalType": "uint256",
          "name": "endDate",
          "type": "uint256"
        },
        {
          "internalType": "uint256",
          "name": "amount",
          "type": "uint256"
        }
      ],
      "name": "removeUtilityBill",
      "outputs": [],
      "stateMutability": "nonpayable",
      "type": "function"
    },
    {
      "inputs": [
        {
          "internalType": "string",
          "name": "houseAddress",
          "type": "string"
        },
        {
          "internalType": "address",
          "name": "caller",
          "type": "address"
        }
      ],
      "name": "verifyOwner",
      "outputs": [],
      "stateMutability": "view",
      "type": "function"
    }
  ],
  "bytecode": "0x608060405234801561001057600080fd5b506141e4806100206000396000f3fe608060405234801561001057600080fd5b50600436106101215760003560e01c80638087c080116100ad578063bb6ccd9411610071578063bb6ccd941461033b578063ce3526641461036b578063e2aa65f614610387578063fcf6bcda146103a3578063fd190a82146103bf57610121565b80638087c0801461029b5780638b51f713146102b757806398593aa1146102d35780639facb0d814610303578063a42468b81461031f57610121565b806341f013b7116100f457806341f013b7146101d3578063468ad4fc146101ef57806371ce20361461020b57806378d85ffb1461023b5780637f765bc91461026b57610121565b8063161c1e20146101265780633c8af9db146101565780633edf991a1461018757806340a2596f146101b7575b600080fd5b610140600480360381019061013b9190612f43565b6103db565b60405161014d9190613186565b60405180910390f35b610170600480360381019061016b9190612f43565b610533565b60405161017e929190613233565b60405180910390f35b6101a1600480360381019061019c919061328f565b610615565b6040516101ae9190613321565b60405180910390f35b6101d160048036038101906101cc919061328f565b6107d5565b005b6101ed60048036038101906101e89190612f43565b610a3a565b005b61020960048036038101906102049190612f43565b610fd5565b005b61022560048036038101906102209190612f43565b611570565b6040516102329190613496565b60405180910390f35b610255600480360381019061025091906134b8565b61176b565b6040516102629190613321565b60405180910390f35b6102856004803603810190610280919061328f565b611a27565b6040516102929190613321565b60405180910390f35b6102b560048036038101906102b09190613557565b611be7565b005b6102d160048036038101906102cc91906134b8565b611d4b565b005b6102ed60048036038101906102e89190612f43565b611e67565b6040516102fa91906136f4565b60405180910390f35b61031d60048036038101906103189190613742565b611fbf565b005b6103396004803603810190610334919061379e565b612128565b005b61035560048036038101906103509190612f43565b61224e565b6040516103629190613851565b60405180910390f35b6103856004803603810190610380919061328f565b61230b565b005b6103a1600480360381019061039c919061379e565b612570565b005b6103bd60048036038101906103b89190613873565b612696565b005b6103d960048036038101906103d49190612f43565b6127f1565b005b60606103e78233611fbf565b6000826040516103f7919061397e565b9081526020016040518091039020600301805480602002602001604051908101604052809291908181526020016000905b8282101561052857838290600052602060002090600502016040518060800160405290816000820160405180604001604052908160008201805461046b906139c4565b80601f0160208091040260200160405190810160405280929190818152602001828054610497906139c4565b80156104e45780601f106104b9576101008083540402835291602001916104e4565b820191906000526020600020905b8154815290600101906020018083116104c757829003601f168201915b505050505081526020016001820154815250508152602001600282015481526020016003820154815260200160048201548152505081526020019060010190610428565b505050509050919050565b6000818051602081018201805184825260208301602085012081835280955050505050506000915090508060000160009054906101000a900473ffffffffffffffffffffffffffffffffffffffff1690806001018054610592906139c4565b80601f01602080910402602001604051908101604052809291908181526020018280546105be906139c4565b801561060b5780601f106105e05761010080835404028352916020019161060b565b820191906000526020600020905b8154815290600101906020018083116105ee57829003601f168201915b5050505050905082565b600080600090505b60008660405161062d919061397e565b9081526020016040518091039020600401805490508110156107a8576000808760405161065a919061397e565b9081526020016040518091039020600401828154811061067d5761067c6139f5565b5b9060005260206000209060050201604051806080016040529081600082016040518060400160405290816000820180546106b6906139c4565b80601f01602080910402602001604051908101604052809291908181526020018280546106e2906139c4565b801561072f5780601f106107045761010080835404028352916020019161072f565b820191906000526020600020905b81548152906001019060200180831161071257829003601f168201915b5050505050815260200160018201548152505081526020016002820154815260200160038201548152602001600482015481525050905085816020015114801561077c5750848160400151145b801561078b5750838160600151145b1561079a5781925050506107cd565b50808060010191505061061d565b507fffffffffffffffffffffffffffffffffffffffffffffffffffffffffffffffff90505b949350505050565b6107df8433611fbf565b60006107ed85858585611a27565b90507fffffffffffffffffffffffffffffffffffffffffffffffffffffffffffffffff8103610851576040517f08c379a000000000000000000000000000000000000000000000000000000000815260040161084890613a70565b60405180910390fd5b60008190505b6001600087604051610869919061397e565b9081526020016040518091039020600401805490506108889190613abf565b8110156109745760008660405161089f919061397e565b90815260200160405180910390206004016001826108bd9190613af3565b815481106108ce576108cd6139f5565b5b90600052602060002090600502016000876040516108ec919061397e565b9081526020016040518091039020600401828154811061090f5761090e6139f5565b5b90600052602060002090600502016000820181600001600082018160000190816109399190613ce9565b506001820154816001015550506002820154816002015560038201548160030155600482015481600401559050508080600101915050610857565b50600085604051610985919061397e565b90815260200160405180910390206004018054806109a6576109a5613dd1565b5b60019003818190600052602060002090600502016000808201600080820160006109d09190612d8c565b60018201600090555050600282016000905560038201600090556004820160009055505090557f2ed61a0210ac187e27d0ee1d65843b740628d6f3139dd67bd6d0fb428f9f7fe185858585604051610a2b9493929190613e00565b60405180910390a15050505050565b610a448133611fbf565b60008082604051610a55919061397e565b90815260200160405180910390206040518060a00160405290816000820160009054906101000a900473ffffffffffffffffffffffffffffffffffffffff1673ffffffffffffffffffffffffffffffffffffffff1673ffffffffffffffffffffffffffffffffffffffff168152602001600182018054610ad4906139c4565b80601f0160208091040260200160405190810160405280929190818152602001828054610b00906139c4565b8015610b4d5780601f10610b2257610100808354040283529160200191610b4d565b820191906000526020600020905b815481529060010190602001808311610b3057829003601f168201915b5050505050815260200160028201805480602002602001604051908101604052809291908181526020016000905b82821015610d1e57838290600052602060002090600602016040518060a001604052908160008201604051806040016040529081600082018054610bbe906139c4565b80601f0160208091040260200160405190810160405280929190818152602001828054610bea906139c4565b8015610c375780601f10610c0c57610100808354040283529160200191610c37565b820191906000526020600020905b815481529060010190602001808311610c1a57829003601f168201915b5050505050815260200160018201548152505081526020016002820154815260200160038201548152602001600482018054610c72906139c4565b80601f0160208091040260200160405190810160405280929190818152602001828054610c9e906139c4565b8015610ceb5780601f10610cc057610100808354040283529160200191610ceb565b820191906000526020600020905b815481529060010190602001808311610cce57829003601f168201915b505050505081526020016005820160009054906101000a900460ff16151515158152505081526020019060010190610b7b565b50505050815260200160038201805480602002602001604051908101604052809291908181526020016000905b82821015610e4b578382906000526020600020906005020160405180608001604052908160008201604051806040016040529081600082018054610d8e906139c4565b80601f0160208091040260200160405190810160405280929190818152602001828054610dba906139c4565b8015610e075780601f10610ddc57610100808354040283529160200191610e07565b820191906000526020600020905b815481529060010190602001808311610dea57829003601f168201915b505050505081526020016001820154815250508152602001600282015481526020016003820154815260200160048201548152505081526020019060010190610d4b565b50505050815260200160048201805480602002602001604051908101604052809291908181526020016000905b82821015610f78578382906000526020600020906005020160405180608001604052908160008201604051806040016040529081600082018054610ebb906139c4565b80601f0160208091040260200160405190810160405280929190818152602001828054610ee7906139c4565b8015610f345780601f10610f0957610100808354040283529160200191610f34565b820191906000526020600020905b815481529060010190602001808311610f1757829003601f168201915b505050505081526020016001820154815250508152602001600282015481526020016003820154815260200160048201548152505081526020019060010190610e78565b5050505081525050905060008160800151511115610fd1578060800160608152507f1477d8ef211ae1f86820b1540a51f7eaea5ce83b0b8493b15409b9fa363a21a282604051610fc89190613851565b60405180910390a15b5050565b610fdf8133611fbf565b60008082604051610ff0919061397e565b90815260200160405180910390206040518060a00160405290816000820160009054906101000a900473ffffffffffffffffffffffffffffffffffffffff1673ffffffffffffffffffffffffffffffffffffffff1673ffffffffffffffffffffffffffffffffffffffff16815260200160018201805461106f906139c4565b80601f016020809104026020016040519081016040528092919081815260200182805461109b906139c4565b80156110e85780601f106110bd576101008083540402835291602001916110e8565b820191906000526020600020905b8154815290600101906020018083116110cb57829003601f168201915b5050505050815260200160028201805480602002602001604051908101604052809291908181526020016000905b828210156112b957838290600052602060002090600602016040518060a001604052908160008201604051806040016040529081600082018054611159906139c4565b80601f0160208091040260200160405190810160405280929190818152602001828054611185906139c4565b80156111d25780601f106111a7576101008083540402835291602001916111d2565b820191906000526020600020905b8154815290600101906020018083116111b557829003601f168201915b505050505081526020016001820154815250508152602001600282015481526020016003820154815260200160048201805461120d906139c4565b80601f0160208091040260200160405190810160405280929190818152602001828054611239906139c4565b80156112865780601f1061125b57610100808354040283529160200191611286565b820191906000526020600020905b81548152906001019060200180831161126957829003601f168201915b505050505081526020016005820160009054906101000a900460ff16151515158152505081526020019060010190611116565b50505050815260200160038201805480602002602001604051908101604052809291908181526020016000905b828210156113e6578382906000526020600020906005020160405180608001604052908160008201604051806040016040529081600082018054611329906139c4565b80601f0160208091040260200160405190810160405280929190818152602001828054611355906139c4565b80156113a25780601f10611377576101008083540402835291602001916113a2565b820191906000526020600020905b81548152906001019060200180831161138557829003601f168201915b5050505050815260200160018201548152505081526020016002820154815260200160038201548152602001600482015481525050815260200190600101906112e6565b50505050815260200160048201805480602002602001604051908101604052809291908181526020016000905b82821015611513578382906000526020600020906005020160405180608001604052908160008201604051806040016040529081600082018054611456906139c4565b80601f0160208091040260200160405190810160405280929190818152602001828054611482906139c4565b80156114cf5780601f106114a4576101008083540402835291602001916114cf565b820191906000526020600020905b8154815290600101906020018083116114b257829003601f168201915b505050505081526020016001820154815250508152602001600282015481526020016003820154815260200160048201548152505081526020019060010190611413565b505050508152505090506000816040015151111561156c578060400160608152507fba7ee6aabac24fca5d8b65a4b06e79980134938024ad26356716467e4b11ab6a826040516115639190613851565b60405180910390a15b5050565b606061157c8233611fbf565b60008260405161158c919061397e565b9081526020016040518091039020600201805480602002602001604051908101604052809291908181526020016000905b8282101561176057838290600052602060002090600602016040518060a001604052908160008201604051806040016040529081600082018054611600906139c4565b80601f016020809104026020016040519081016040528092919081815260200182805461162c906139c4565b80156116795780601f1061164e57610100808354040283529160200191611679565b820191906000526020600020905b81548152906001019060200180831161165c57829003601f168201915b50505050508152602001600182015481525050815260200160028201548152602001600382015481526020016004820180546116b4906139c4565b80601f01602080910402602001604051908101604052809291908181526020018280546116e0906139c4565b801561172d5780601f106117025761010080835404028352916020019161172d565b820191906000526020600020905b81548152906001019060200180831161171057829003601f168201915b505050505081526020016005820160009054906101000a900460ff161515151581525050815260200190600101906115bd565b505050509050919050565b600080600090505b600086604051611783919061397e565b9081526020016040518091039020600201805490508110156119fa57600080876040516117b0919061397e565b908152602001604051809103902060020182815481106117d3576117d26139f5565b5b90600052602060002090600602016040518060a00160405290816000820160405180604001604052908160008201805461180c906139c4565b80601f0160208091040260200160405190810160405280929190818152602001828054611838906139c4565b80156118855780601f1061185a57610100808354040283529160200191611885565b820191906000526020600020905b81548152906001019060200180831161186857829003601f168201915b50505050508152602001600182015481525050815260200160028201548152602001600382015481526020016004820180546118c0906139c4565b80601f01602080910402602001604051908101604052809291908181526020018280546118ec906139c4565b80156119395780601f1061190e57610100808354040283529160200191611939565b820191906000526020600020905b81548152906001019060200180831161191c57829003601f168201915b505050505081526020016005820160009054906101000a900460ff16151515158152505090508581602001511480156119755750848160400151145b80156119d057508360405160200161198d919061397e565b6040516020818303038152906040528051906020012081606001516040516020016119b8919061397e565b60405160208183030381529060405280519060200120145b80156119dd575080608001515b156119ec578192505050611a1f565b508080600101915050611773565b507fffffffffffffffffffffffffffffffffffffffffffffffffffffffffffffffff90505b949350505050565b600080600090505b600086604051611a3f919061397e565b908152602001604051809103902060030180549050811015611bba5760008087604051611a6c919061397e565b90815260200160405180910390206003018281548110611a8f57611a8e6139f5565b5b906000526020600020906005020160405180608001604052908160008201604051806040016040529081600082018054611ac8906139c4565b80601f0160208091040260200160405190810160405280929190818152602001828054611af4906139c4565b8015611b415780601f10611b1657610100808354040283529160200191611b41565b820191906000526020600020905b815481529060010190602001808311611b2457829003601f168201915b50505050508152602001600182015481525050815260200160028201548152602001600382015481526020016004820154815250509050858160200151148015611b8e5750848160400151145b8015611b9d5750838160600151145b15611bac578192505050611bdf565b508080600101915050611a2f565b507fffffffffffffffffffffffffffffffffffffffffffffffffffffffffffffffff90505b949350505050565b600073ffffffffffffffffffffffffffffffffffffffff16600083604051611c0f919061397e565b908152602001604051809103902060000160009054906101000a900473ffffffffffffffffffffffffffffffffffffffff1673ffffffffffffffffffffffffffffffffffffffff1614611c97576040517f08c379a0000000000000000000000000000000000000000000000000000000008152600401611c8e90613e98565b60405180910390fd5b60008083604051611ca8919061397e565b90815260200160405180910390209050338160000160006101000a81548173ffffffffffffffffffffffffffffffffffffffff021916908373ffffffffffffffffffffffffffffffffffffffff16021790555081816001019081611d0c9190613eb8565b507fe368127686f59c7c4156573e0842395fd43d44ff1c7c9ef4de4d05f7689902f88333604051611d3e929190613f8a565b60405180910390a1505050565b611d558433611fbf565b6000611d638585858561176b565b90507fffffffffffffffffffffffffffffffffffffffffffffffffffffffffffffffff8103611dc7576040517f08c379a0000000000000000000000000000000000000000000000000000000008152600401611dbe90614006565b60405180910390fd5b60008086604051611dd8919061397e565b90815260200160405180910390206002018281548110611dfb57611dfa6139f5565b5b906000526020600020906006020160050160006101000a81548160ff0219169083151502179055507f4dfb774166d310e16c4171807643c7899734df620f5625531f047b18d90ca00f85858585604051611e589493929190614026565b60405180910390a15050505050565b6060611e738233611fbf565b600082604051611e83919061397e565b9081526020016040518091039020600401805480602002602001604051908101604052809291908181526020016000905b82821015611fb4578382906000526020600020906005020160405180608001604052908160008201604051806040016040529081600082018054611ef7906139c4565b80601f0160208091040260200160405190810160405280929190818152602001828054611f23906139c4565b8015611f705780601f10611f4557610100808354040283529160200191611f70565b820191906000526020600020905b815481529060010190602001808311611f5357829003601f168201915b505050505081526020016001820154815250508152602001600282015481526020016003820154815260200160048201548152505081526020019060010190611eb4565b505050509050919050565b600073ffffffffffffffffffffffffffffffffffffffff16600083604051611fe7919061397e565b908152602001604051809103902060000160009054906101000a900473ffffffffffffffffffffffffffffffffffffffff1673ffffffffffffffffffffffffffffffffffffffff160361207157816040517f33ed44d00000000000000000000000000000000000000000000000000000000081526004016120689190613851565b60405180910390fd5b8073ffffffffffffffffffffffffffffffffffffffff16600083604051612098919061397e565b908152602001604051809103902060000160009054906101000a900473ffffffffffffffffffffffffffffffffffffffff1673ffffffffffffffffffffffffffffffffffffffff16146121245780826040517f884ca58700000000000000000000000000000000000000000000000000000000815260040161211b929190613233565b60405180910390fd5b5050565b6121328533611fbf565b6000604051806040016040528086815260200142815250905060006040518060800160405280838152602001868152602001858152602001848152509050600087604051612180919061397e565b908152602001604051809103902060030181908060018154018082558091505060019003906000526020600020906005020160009091909190915060008201518160000160008201518160000190816121d99190613eb8565b5060208201518160010155505060208201518160020155604082015181600301556060820151816004015550507feb9a931c6d8395360f5cc26d535ca1cc9e509d99611cffec3b563f5a8d7f6073878787878760405161223d959493929190614079565b60405180910390a150505050505050565b606061225a8233611fbf565b60008260405161226a919061397e565b90815260200160405180910390206001018054612286906139c4565b80601f01602080910402602001604051908101604052809291908181526020018280546122b2906139c4565b80156122ff5780601f106122d4576101008083540402835291602001916122ff565b820191906000526020600020905b8154815290600101906020018083116122e257829003601f168201915b50505050509050919050565b6123158433611fbf565b600061232385858585610615565b90507fffffffffffffffffffffffffffffffffffffffffffffffffffffffffffffffff8103612387576040517f08c379a000000000000000000000000000000000000000000000000000000000815260040161237e90614126565b60405180910390fd5b60008190505b600160008760405161239f919061397e565b9081526020016040518091039020600301805490506123be9190613abf565b8110156124aa576000866040516123d5919061397e565b90815260200160405180910390206003016001826123f39190613af3565b81548110612404576124036139f5565b5b9060005260206000209060050201600087604051612422919061397e565b90815260200160405180910390206003018281548110612445576124446139f5565b5b906000526020600020906005020160008201816000016000820181600001908161246f9190613ce9565b50600182015481600101555050600282015481600201556003820154816003015560048201548160040155905050808060010191505061238d565b506000856040516124bb919061397e565b90815260200160405180910390206003018054806124dc576124db613dd1565b5b60019003818190600052602060002090600502016000808201600080820160006125069190612d8c565b60018201600090555050600282016000905560038201600090556004820160009055505090557fcc269385a3a1cdf000354e72b6e7d3d676ddb7044bcb5a2407bcec25f0c4ae71858585856040516125619493929190613e00565b60405180910390a15050505050565b61257a8533611fbf565b60006040518060400160405280868152602001428152509050600060405180608001604052808381526020018681526020018581526020018481525090506000876040516125c8919061397e565b908152602001604051809103902060040181908060018154018082558091505060019003906000526020600020906005020160009091909190915060008201518160000160008201518160000190816126219190613eb8565b5060208201518160010155505060208201518160020155604082015181600301556060820151816004015550507f7a048f44bc7365074de10866787736126207722e5197156882dec6586cf70eed8787878787604051612685959493929190614079565b60405180910390a150505050505050565b6126a08533611fbf565b6000604051806040016040528086815260200142815250905060006040518060a001604052808381526020018681526020018581526020018481526020016001151581525090506000876040516126f7919061397e565b908152602001604051809103902060020181908060018154018082558091505060019003906000526020600020906006020160009091909190915060008201518160000160008201518160000190816127509190613eb8565b50602082015181600101555050602082015181600201556040820151816003015560608201518160040190816127869190613eb8565b5060808201518160050160006101000a81548160ff02191690831515021790555050507f3dfabda0da8ad5f5c2f79f595a5ebe69ffd081c62ceec1185a5c8ca88253745787878787876040516127e0959493929190614146565b60405180910390a150505050505050565b6127fb8133611fbf565b6000808260405161280c919061397e565b90815260200160405180910390206040518060a00160405290816000820160009054906101000a900473ffffffffffffffffffffffffffffffffffffffff1673ffffffffffffffffffffffffffffffffffffffff1673ffffffffffffffffffffffffffffffffffffffff16815260200160018201805461288b906139c4565b80601f01602080910402602001604051908101604052809291908181526020018280546128b7906139c4565b80156129045780601f106128d957610100808354040283529160200191612904565b820191906000526020600020905b8154815290600101906020018083116128e757829003601f168201915b5050505050815260200160028201805480602002602001604051908101604052809291908181526020016000905b82821015612ad557838290600052602060002090600602016040518060a001604052908160008201604051806040016040529081600082018054612975906139c4565b80601f01602080910402602001604051908101604052809291908181526020018280546129a1906139c4565b80156129ee5780601f106129c3576101008083540402835291602001916129ee565b820191906000526020600020905b8154815290600101906020018083116129d157829003601f168201915b5050505050815260200160018201548152505081526020016002820154815260200160038201548152602001600482018054612a29906139c4565b80601f0160208091040260200160405190810160405280929190818152602001828054612a55906139c4565b8015612aa25780601f10612a7757610100808354040283529160200191612aa2565b820191906000526020600020905b815481529060010190602001808311612a8557829003601f168201915b505050505081526020016005820160009054906101000a900460ff16151515158152505081526020019060010190612932565b50505050815260200160038201805480602002602001604051908101604052809291908181526020016000905b82821015612c02578382906000526020600020906005020160405180608001604052908160008201604051806040016040529081600082018054612b45906139c4565b80601f0160208091040260200160405190810160405280929190818152602001828054612b71906139c4565b8015612bbe5780601f10612b9357610100808354040283529160200191612bbe565b820191906000526020600020905b815481529060010190602001808311612ba157829003601f168201915b505050505081526020016001820154815250508152602001600282015481526020016003820154815260200160048201548152505081526020019060010190612b02565b50505050815260200160048201805480602002602001604051908101604052809291908181526020016000905b82821015612d2f578382906000526020600020906005020160405180608001604052908160008201604051806040016040529081600082018054612c72906139c4565b80601f0160208091040260200160405190810160405280929190818152602001828054612c9e906139c4565b8015612ceb5780601f10612cc057610100808354040283529160200191612ceb565b820191906000526020600020905b815481529060010190602001808311612cce57829003601f168201915b505050505081526020016001820154815250508152602001600282015481526020016003820154815260200160048201548152505081526020019060010190612c2f565b5050505081525050905060008160600151511115612d88578060600160608152507f7f7f78f9f42e78f687c1cfe21d82475d61bc662ecf8ddbe3c5c937019920ca4882604051612d7f9190613851565b60405180910390a15b5050565b508054612d98906139c4565b6000825580601f10612daa5750612dc9565b601f016020900490600052602060002090810190612dc89190612dcc565b5b50565b5b80821115612de5576000816000905550600101612dcd565b5090565b6000604051905090565b600080fd5b600080fd5b600080fd5b600080fd5b6000601f19601f8301169050919050565b7f4e487b7100000000000000000000000000000000000000000000000000000000600052604160045260246000fd5b612e5082612e07565b810181811067ffffffffffffffff82111715612e6f57612e6e612e18565b5b80604052505050565b6000612e82612de9565b9050612e8e8282612e47565b919050565b600067ffffffffffffffff821115612eae57612ead612e18565b5b612eb782612e07565b9050602081019050919050565b82818337600083830152505050565b6000612ee6612ee184612e93565b612e78565b905082815260208101848484011115612f0257612f01612e02565b5b612f0d848285612ec4565b509392505050565b600082601f830112612f2a57612f29612dfd565b5b8135612f3a848260208601612ed3565b91505092915050565b600060208284031215612f5957612f58612df3565b5b600082013567ffffffffffffffff811115612f7757612f76612df8565b5b612f8384828501612f15565b91505092915050565b600081519050919050565b600082825260208201905092915050565b6000819050602082019050919050565b600081519050919050565b600082825260208201905092915050565b60005b83811015612ff2578082015181840152602081019050612fd7565b60008484015250505050565b600061300982612fb8565b6130138185612fc3565b9350613023818560208601612fd4565b61302c81612e07565b840191505092915050565b6000819050919050565b61304a81613037565b82525050565b6000604083016000830151848203600086015261306d8282612ffe565b91505060208301516130826020860182613041565b508091505092915050565b600060808301600083015184820360008601526130aa8282613050565b91505060208301516130bf6020860182613041565b5060408301516130d26040860182613041565b5060608301516130e56060860182613041565b508091505092915050565b60006130fc838361308d565b905092915050565b6000602082019050919050565b600061311c82612f8c565b6131268185612f97565b93508360208202850161313885612fa8565b8060005b85811015613174578484038952815161315585826130f0565b945061316083613104565b925060208a0199505060018101905061313c565b50829750879550505050505092915050565b600060208201905081810360008301526131a08184613111565b905092915050565b600073ffffffffffffffffffffffffffffffffffffffff82169050919050565b60006131d3826131a8565b9050919050565b6131e3816131c8565b82525050565b600082825260208201905092915050565b600061320582612fb8565b61320f81856131e9565b935061321f818560208601612fd4565b61322881612e07565b840191505092915050565b600060408201905061324860008301856131da565b818103602083015261325a81846131fa565b90509392505050565b61326c81613037565b811461327757600080fd5b50565b60008135905061328981613263565b92915050565b600080600080608085870312156132a9576132a8612df3565b5b600085013567ffffffffffffffff8111156132c7576132c6612df8565b5b6132d387828801612f15565b94505060206132e48782880161327a565b93505060406132f58782880161327a565b92505060606133068782880161327a565b91505092959194509250565b61331b81613037565b82525050565b60006020820190506133366000830184613312565b92915050565b600081519050919050565b600082825260208201905092915050565b6000819050602082019050919050565b60008115159050919050565b61337d81613368565b82525050565b600060a08301600083015184820360008601526133a08282613050565b91505060208301516133b56020860182613041565b5060408301516133c86040860182613041565b50606083015184820360608601526133e08282612ffe565b91505060808301516133f56080860182613374565b508091505092915050565b600061340c8383613383565b905092915050565b6000602082019050919050565b600061342c8261333c565b6134368185613347565b93508360208202850161344885613358565b8060005b8581101561348457848403895281516134658582613400565b945061347083613414565b925060208a0199505060018101905061344c565b50829750879550505050505092915050565b600060208201905081810360008301526134b08184613421565b905092915050565b600080600080608085870312156134d2576134d1612df3565b5b600085013567ffffffffffffffff8111156134f0576134ef612df8565b5b6134fc87828801612f15565b945050602061350d8782880161327a565b935050604061351e8782880161327a565b925050606085013567ffffffffffffffff81111561353f5761353e612df8565b5b61354b87828801612f15565b91505092959194509250565b6000806040838503121561356e5761356d612df3565b5b600083013567ffffffffffffffff81111561358c5761358b612df8565b5b61359885828601612f15565b925050602083013567ffffffffffffffff8111156135b9576135b8612df8565b5b6135c585828601612f15565b9150509250929050565b600081519050919050565b600082825260208201905092915050565b6000819050602082019050919050565b600060808301600083015184820360008601526136188282613050565b915050602083015161362d6020860182613041565b5060408301516136406040860182613041565b5060608301516136536060860182613041565b508091505092915050565b600061366a83836135fb565b905092915050565b6000602082019050919050565b600061368a826135cf565b61369481856135da565b9350836020820285016136a6856135eb565b8060005b858110156136e257848403895281516136c3858261365e565b94506136ce83613672565b925060208a019950506001810190506136aa565b50829750879550505050505092915050565b6000602082019050818103600083015261370e818461367f565b905092915050565b61371f816131c8565b811461372a57600080fd5b50565b60008135905061373c81613716565b92915050565b6000806040838503121561375957613758612df3565b5b600083013567ffffffffffffffff81111561377757613776612df8565b5b61378385828601612f15565b92505060206137948582860161372d565b9150509250929050565b600080600080600060a086880312156137ba576137b9612df3565b5b600086013567ffffffffffffffff8111156137d8576137d7612df8565b5b6137e488828901612f15565b955050602086013567ffffffffffffffff81111561380557613804612df8565b5b61381188828901612f15565b94505060406138228882890161327a565b93505060606138338882890161327a565b92505060806138448882890161327a565b9150509295509295909350565b6000602082019050818103600083015261386b81846131fa565b905092915050565b600080600080600060a0868803121561388f5761388e612df3565b5b600086013567ffffffffffffffff8111156138ad576138ac612df8565b5b6138b988828901612f15565b955050602086013567ffffffffffffffff8111156138da576138d9612df8565b5b6138e688828901612f15565b94505060406138f78882890161327a565b93505060606139088882890161327a565b925050608086013567ffffffffffffffff81111561392957613928612df8565b5b61393588828901612f15565b9150509295509295909350565b600081905092915050565b600061395882612fb8565b6139628185613942565b9350613972818560208601612fd4565b80840191505092915050565b600061398a828461394d565b915081905092915050565b7f4e487b7100000000000000000000000000000000000000000000000000000000600052602260045260246000fd5b600060028204905060018216806139dc57607f821691505b6020821081036139ef576139ee613995565b5b50919050565b7f4e487b7100000000000000000000000000000000000000000000000000000000600052603260045260246000fd5b7f50726f7065727479205461782072656365697074206e6f7420666f756e640000600082015250565b6000613a5a601e836131e9565b9150613a6582613a24565b602082019050919050565b60006020820190508181036000830152613a8981613a4d565b9050919050565b7f4e487b7100000000000000000000000000000000000000000000000000000000600052601160045260246000fd5b6000613aca82613037565b9150613ad583613037565b9250828203905081811115613aed57613aec613a90565b5b92915050565b6000613afe82613037565b9150613b0983613037565b9250828201905080821115613b2157613b20613a90565b5b92915050565b600081549050613b36816139c4565b9050919050565b60008190508160005260206000209050919050565b60006020601f8301049050919050565b600082821b905092915050565b600060088302613b9f7fffffffffffffffffffffffffffffffffffffffffffffffffffffffffffffffff82613b62565b613ba98683613b62565b95508019841693508086168417925050509392505050565b6000819050919050565b6000613be6613be1613bdc84613037565b613bc1565b613037565b9050919050565b6000819050919050565b613c0083613bcb565b613c14613c0c82613bed565b848454613b6f565b825550505050565b600090565b613c29613c1c565b613c34818484613bf7565b505050565b5b81811015613c5857613c4d600082613c21565b600181019050613c3a565b5050565b601f821115613c9d57613c6e81613b3d565b613c7784613b52565b81016020851015613c86578190505b613c9a613c9285613b52565b830182613c39565b50505b505050565b600082821c905092915050565b6000613cc060001984600802613ca2565b1980831691505092915050565b6000613cd98383613caf565b9150826002028217905092915050565b818103613cf7575050613dcf565b613d0082613b27565b67ffffffffffffffff811115613d1957613d18612e18565b5b613d2382546139c4565b613d2e828285613c5c565b6000601f831160018114613d5d5760008415613d4b578287015490505b613d558582613ccd565b865550613dc8565b601f198416613d6b87613b3d565b9650613d7686613b3d565b60005b82811015613d9e57848901548255600182019150600185019450602081019050613d79565b86831015613dbb5784890154613db7601f891682613caf565b8355505b6001600288020188555050505b5050505050505b565b7f4e487b7100000000000000000000000000000000000000000000000000000000600052603160045260246000fd5b60006080820190508181036000830152613e1a81876131fa565b9050613e296020830186613312565b613e366040830185613312565b613e436060830184613312565b95945050505050565b7f486f75736520616c726561647920726567697374657265642e00000000000000600082015250565b6000613e826019836131e9565b9150613e8d82613e4c565b602082019050919050565b60006020820190508181036000830152613eb181613e75565b9050919050565b613ec182612fb8565b67ffffffffffffffff811115613eda57613ed9612e18565b5b613ee482546139c4565b613eef828285613c5c565b600060209050601f831160018114613f225760008415613f10578287015190505b613f1a8582613ccd565b865550613f82565b601f198416613f3086613b3d565b60005b82811015613f5857848901518255600182019150602085019450602081019050613f33565b86831015613f755784890151613f71601f891682613caf565b8355505b6001600288020188555050505b505050505050565b60006040820190508181036000830152613fa481856131fa565b9050613fb360208301846131da565b9392505050565b7f4c65617365206e6f7420666f756e642e00000000000000000000000000000000600082015250565b6000613ff06010836131e9565b9150613ffb82613fba565b602082019050919050565b6000602082019050818103600083015261401f81613fe3565b9050919050565b6000608082019050818103600083015261404081876131fa565b905061404f6020830186613312565b61405c6040830185613312565b818103606083015261406e81846131fa565b905095945050505050565b600060a082019050818103600083015261409381886131fa565b905081810360208301526140a781876131fa565b90506140b66040830186613312565b6140c36060830185613312565b6140d06080830184613312565b9695505050505050565b7f5574696c6974792042696c6c206e6f7420666f756e6400000000000000000000600082015250565b60006141106016836131e9565b915061411b826140da565b602082019050919050565b6000602082019050818103600083015261413f81614103565b9050919050565b600060a082019050818103600083015261416081886131fa565b9050818103602083015261417481876131fa565b90506141836040830186613312565b6141906060830185613312565b81810360808301526141a281846131fa565b9050969550505050505056fea2646970667358221220c3176e3f4d9e4c0c663bed2bb6716be525b714559219e3687f979944e9da676664736f6c63430008180033",
  "linkReferences": {},
  "deployedLinkReferences": {}
}